:100000000C943A000C9457000C9457000C94570031
:100010000C9457000C9457000C9457000C94570004
:100020000C9457000C9457000C9457000C945700F4
:100030000C9457000C9457000C9457000C945700E4
:100040000C9457000C9457000C948F010C94B4013D
:100050000C9457000C9457000C9457000C945700C4
:100060000C9457000C9457006364696E6F7073753D
:1000700078585B0011241FBECFEFD8E0DEBFCDBFA4
:1000800012E0A0E0B1E0ECE3F7E102C005900D92D0
:10009000A635B107D9F723E0A6E5B2E001C01D926D
:1000A000A130B207E1F70E94D8030C949C0B0C948A
:1000B0000000982F92959F708F70990F292F220F13
:1000C000220F920F890F08959DEC899F912D112485
:1000D000969596959695392F330F232F220F220F41
:1000E000230F821B282F30E1939FC0011124822B04
:1000F0000895CF93DF93EC0180ED0E944401883195
:1001000051F580E00E946A0188810E9464000E948B
:100110006A0189810E9464000E946A018A810E94AA
:1001200064000E946A018B810E9464000E946A013F
:100130008C810E9464000E946A018D810E9464008B
:100140000E946A018E810E9464000E946A010E94DE
:10015000660180E001C081E0DF91CF910895CF93E7
:10016000DF93EC0180ED0E9444018F3FD1F1883193
:10017000D1F580E00E946A0181ED0E9444018F3F29
:10018000A1F18034A1F581E00E9474010E94590020
:10019000888381E00E9474010E945900898381E074
:1001A0000E9474010E9459008A8381E00E947401B8
:1001B0000E9459008B8381E00E9474010E945900C3
:1001C0008C8381E00E9474010E9459008D8380E03D
:1001D0000E9474010E9459008E830E94660180E093
:1001E00007C081E005C081E003C081E001C081E07B
:1001F000DF91CF910895CF9380ED0E944401883123
:1002000099F48FE00E946A010E94660181ED0E94CC
:100210004401803459F480E00E947401C82F0E9488
:1002200066018C2F817003C080E001C080E0CF9117
:10023000089580ED0E944401883141F48FE00E94CE
:100240006A0180E00E946A010E946601089580E0D0
:1002500090E00BC00196803325E7920730F081E0F3
:1002600091E00E94E20181E008952091BC002223E8
:100270008CF780E008951092B90088E48093B8006C
:1002800084E08093BC000895CF93C82F84EA8093C4
:10029000BC000E942701811114C08091B900887FA1
:1002A000883011F0803181F4C093BB0084E88093E2
:1002B000BC000E942701811106C08091B900887F8F
:1002C00003C08FEF01C08FEFCF91089584E9809331
:1002D000BC0008958093BB0084E88093BC008091AB
:1002E000BC008823E4F70895811102C084E801C0AE
:1002F00084EC8093BC008091BC008823E4F780915B
:10030000BB0008951092C50087E68093C40088E979
:100310008093C10086E08093C200789408951F9274
:100320000F920FB60F9211248F939F93EF93FF9329
:10033000809199028F5F803408F080E0E09199020B
:10034000F0E09091C600E656FD4F908390919802A0
:10035000981380939902FF91EF919F918F910F9045
:100360000FBE0F901F9018951F920F920FB60F920D
:1003700011248F939F93EF93FF9390915702809155
:100380005602981306C0E1ECF0E080818F7D8083F7
:1003900010C0E0915602F0E0E85AFD4F8081809352
:1003A000C600809156028F5F803408F080E0809311
:1003B0005602FF91EF919F918F910F900FBE0F907A
:1003C0001F901895DC0113C0209157022F5F203435
:1003D00008F020E0909156029217E1F3E091570265
:1003E000F0E01196E85AFD4F8083209357028C91DC
:1003F0008111EACFE1ECF0E0808180628083089592
:100400008091990290919802891B8F730895909121
:10041000990280919802981779F0E0919802F0E0A3
:10042000E656FD4F8081909198029F5F903408F0CE
:1004300090E090939802089580E00895CF93DF9321
:1004400033C00E940702C82F883011F08F3741F463
:100450008091DF02882341F181508093DF0224C024
:100460008D3011F08A3071F4E091DF02F0E0E0525B
:10047000FD4F10821092DF0282E592E00E94E201BD
:1004800081E016C0D091DF02DF3170F490E00E946D
:100490005605892B49F081E08D0F8093DF02ED2F07
:1004A000F0E0E052FD4FC0830E9400028111C9CFED
:1004B000DF91CF910895EF92FF920F931F93CF9307
:1004C000DF93CDB7DEB727970FB6F894DEBF0FBE28
:1004D000CDBFFC0101900020E9F73197E81BF90B33
:1004E000719709F0F6C0DC0112962C9112972F3209
:1004F00009F0EFC015962C9115972F3209F0E9C03D
:1005000018962C911897203209F0E3C01B962C9175
:100510001B972A3309F0DDC01E962C911E972A33B3
:1005200009F0D7C00C91202F30E0205331092A3038
:10053000310508F0CEC011961C911197212F30E0A3
:10054000205331092A30310508F0C3C013962C918D
:10055000139730E0205331092A30310508F0B9C033
:1005600014962C91149730E0205331092A3031052C
:1005700008F0AFC016965C911697252F30E02053F7
:1005800031092A30310508F0A4C01796BC912B2FF1
:1005900030E0205331092A30310508F09AC0FC01BF
:1005A0004185242F30E0205331092A30310508F0ED
:1005B00090C0A2852A2F30E0205331092A3031051E
:1005C00008F087C03485632F70E0605371096A308A
:1005D000710508F07EC07585E72EF12CF0E3EF1A67
:1005E000F1082AE0E216F10408F073C0FC01278547
:1005F000E22EF12CF0E3EF1AF1086AE0E616F104BE
:1006000008F067C0FC016089E62EF12CF0E3EF1AD8
:10061000F108EAE0EE16F10408F05BC0E02FF0E02C
:10062000F097EE0FFE2FFF0FFF0FEF0FE10FE053DC
:10063000ED83FC011381E12FF0E0F097EE0FFE2F28
:10064000FF0FFF0F1E2F1F0FFC018481810F8053AE
:100650008E83852F90E0C097880F982F990F990F60
:10066000890F8B0F80538F83842F90E0C097880F62
:10067000982F990F990F890F8A0F80538B83832F9F
:1006800090E0C097880F982F990F990F890F870FC7
:1006900080538A83822F90E0C097880F982F990FFC
:1006A000990F890F860F8053898381E08C83CE0157
:1006B00001960E947900811106C08FE091E00E94AE
:1006C000E20181E00BC086E191E00E94E20180E05E
:1006D00005C084E291E00E94E20180E027960FB617
:1006E000F894DEBF0FBECDBFDF91CF911F910F9168
:1006F000FF90EF9008950F931F93CF93DF93CDB7A3
:10070000DEB7EB970FB6F894DEBF0FBECDBFCE01BC
:1007100001960E94AF0081112BC089819091000148
:10072000891731F1809300015A814B813F812E81DD
:100730009D811F928F931F925F931F924F931F92E1
:100740003F931F922F931F929F9388E391E09F9373
:100750008F938E01085F1F4F1F930F930E947E059A
:10076000C8010E94E2010FB6F894DEBF0FBECDBFF4
:10077000EB960FB6F894DEBF0FBECDBFDF91CF91E1
:100780001F910F91089585E691E00E94E20189EAA8
:1007900091E00E94E20187EB91E00E94E20182E792
:1007A00091E00E94E2018FE891E00E94E201089549
:1007B000CF93DF93CDB7DEB7AB970FB6F894DEBF1C
:1007C0000FBECDBF8AB182608AB987B18F7C87B9ED
:1007D00088B1806388B90E9482010E943B017894AD
:1007E0001FEF8091DE02882349F00E94FB008823DE
:1007F00029F081E08093DB020E9419018091DE02E2
:10080000882309F18091DB0281111DC0CE01019680
:100810000E94AF00811117C09B818091DC02981368
:1008200012C09A818091DD0298130DC089818111D7
:100830000AC081E08093DB021092DA0284E08093A8
:1008400000030E9419010E941E02882309F45BC064
:1008500061EA71E080EE92E00E945D05892B41F42F
:1008600081E08093000384EA91E00E94E20149C0A4
:100870006EEA71E080EE92E00E945D05892B39F40A
:100880001092000382EB91E00E94E2013AC049E03D
:1008900050E06DEB71E080EE92E00E947005892BD4
:1008A00051F049E050E067EC71E080EE92E00E9488
:1008B0007005892B41F480EE92E00E94E20182E013
:1008C000809300031EC04AE050E061ED71E080EECD
:1008D00092E00E947005892B51F04AE050E06CEDE7
:1008E00071E080EE92E00E947005892B21F483E094
:1008F0008093000306C087EE91E00E94E2010E940F
:10090000C3031092E00280910003181731F08111A7
:1009100002C00E94C3031091000380910003823043
:1009200089F030F4882309F4B7C0813039F0B5C0BC
:100930008330A1F0843009F494C0AFC00E947B03DF
:1009400001E0ABC089EE92E00E945B02813019F4B5
:1009500000930003A2C0109200039FC08DED92E0AF
:100960009F938F938CED92E09F938F938AEF91E00A
:100970009F938F938AEE92E09F938F930E94A0059E
:100980000FB6F894DEBF0FBECDBF029709F085C049
:100990000F2EFCEDEF2EF2E0FF2EF02DF7018181FE
:1009A0000E94640088A7F70180810E94640089A7E3
:1009B00080E88AA78BA780ED0E944401883109F066
:1009C00049C087E00E946A01F12C0AC0E8E2F0E029
:1009D000EC0FFD1FEF0DF11D80810E946A01F39461
:1009E000F3E0FF1598F70E94660180ED0E94440134
:1009F000883159F58EE00E946A0185E00E946A0103
:100A00000E946601ECEDF2E081E082831092DB024D
:100A10001092DA02918180811F929F931F928F938F
:100A200084E092E09F938F937E0128E0E20EF11C18
:100A3000FF92EF920E947E05C7010E94E2010FB66D
:100A4000F894DEBF0FBECDBF09C088E191E00E94DF
:100A5000E20104C08BE292E00E94E20100930003F5
:100A60001CC0CE0101960E94AF00811116C0898181
:100A700090910001891789F08093000189E492E048
:100A80000E94E2018091DA028F5F8093DA02853062
:100A900020F00093000301C000E0EFE3FCE9319790
:100AA000F1F700C000009DCE803209F091110C9446
:100AB000470A80528F55D8F70895FB01DC018D91CC
:100AC00081341CF08B350CF4805E619161341CF034
:100AD0006B350CF4605E861B611189F3990B0895E8
:100AE000FB01DC014150504030F08D9101908019A4
:100AF00019F40020B9F7881B990B0895AEE0B0E017
:100B0000E4E8F5E00C94730B0D891E8986E08C8374
:100B10001A8309838FEF9FE79E838D83AE01475E23
:100B20005F4F6F89788DCE0101960E94B905EF81E4
:100B3000F885E00FF11F10822E96E4E00C948F0BE5
:100B4000AEE0B0E0E6EAF5E00C94750B85E08C834E
:100B50008B899C899A838983AE01495E5F4F6D8939
:100B60007E89CE0101960E9436092E96E2E00C9411
:100B7000910BABE0B0E0EFEBF5E00C94650B6C0192
:100B80007B018A01FC0117821682838181FFCCC11F
:100B9000CE0101963C01F6019381F70193FD859109
:100BA00093FF81917F01882309F4BAC1853239F41A
:100BB00093FD859193FF81917F01853229F4B601E0
:100BC00090E00E94B20AE7CF912C212C312CFFE15A
:100BD000F315D8F08B3279F038F4803279F0833223
:100BE000A1F4232D20611DC08D3261F0803369F4A2
:100BF000232D216016C0832D8260382EE32DE46002
:100C00003E2E2AC0F32DF8601DC037FC2DC020ED0C
:100C1000280F2A3040F08E32B9F436FC81C1232DE2
:100C20002064322E19C036FE06C08AE0989E200D40
:100C30001124922E11C0EAE02E9E200D1124222EA6
:100C4000F32DF0623F2E08C08C3621F4832D80688E
:100C5000382E02C0883641F4F70193FD859193FF49
:100C600081917F018111B3CF982F9F7D955493304F
:100C700028F40C5F1F4F9FE399830DC0833631F03A
:100C8000833771F0833509F059C021C0F8018081A4
:100C900089830E5F1F4F88248394912C530113C0C6
:100CA0002801F2E04F0E511CF801A080B18036FE01
:100CB00003C0692D70E002C06FEF7FEFC5010E9495
:100CC000690A4C018201F32DFF773F2E16C02801DF
:100CD00022E0420E511CF801A080B18036FE03C014
:100CE000692D70E002C06FEF7FEFC5010E945E0AC0
:100CF0004C01F32DF0683F2E820133FC1BC0822D86
:100D000090E088169906B0F4B60180E290E00E9467
:100D1000B20A2A94F4CFF50137FC859137FE819110
:100D20005F01B60190E00E94B20A21102A9421E0EE
:100D3000821A91088114910471F7E8C0843611F089
:100D4000893641F5F80137FE07C0608171818281E3
:100D500093810C5F1F4F08C060817181072E000CCA
:100D6000880B990B0E5F1F4FF32DFF763F2E97FFD9
:100D700009C090958095709561957F4F8F4F9F4FDB
:100D8000F0683F2E2AE030E0A3010E94070B882E76
:100D9000861845C0853731F4232D2F7EB22E2AE0E8
:100DA00030E025C0932D997FB92E8F36C1F018F40D
:100DB000883579F0B5C0803719F0883721F0B0C098
:100DC000E92FE061BE2EB4FE0DC0FB2DF460BF2EF6
:100DD00009C034FE0AC0292F2660B22E06C028E0C2
:100DE00030E005C020E130E002C020E132E0F8014F
:100DF000B7FE07C060817181828193810C5F1F4FB4
:100E000006C06081718180E090E00E5F1F4FA301FA
:100E10000E94070B882E8618FB2DFF773F2E36FE8B
:100E20000DC0232D2E7FA22E891458F434FE0BC042
:100E300032FC09C0832D8E7EA82E05C0B82CA32CB1
:100E400003C0B82C01C0B92CA4FE0FC0FE01E80DF0
:100E5000F11D8081803321F49A2D997EA92E09C03D
:100E6000A2FE06C0B394B39404C08A2D867809F01C
:100E7000B394A3FC11C0A0FE06C0B21488F4280CE1
:100E8000922C9B180EC0B21460F4B60180E290E080
:100E90000E94B20AB394F7CFB21418F42B1802C010
:100EA000982C212CA4FE10C0B60180E390E00E9493
:100EB000B20AA2FE17C0A1FC03C088E790E002C0FE
:100EC00088E590E0B6010CC08A2D867859F0A1FE25
:100ED00002C08BE201C080E2A7FC8DE2B60190E087
:100EE0000E94B20A891438F4B60180E390E00E94AF
:100EF000B20A9A94F7CF8A94F301E80DF11D80812C
:100F0000B60190E00E94B20A8110F5CF222009F4C8
:100F100042CEB60180E290E00E94B20A2A94F6CF57
:100F2000F6018681978102C08FEF9FEF2B96E2E159
:100F30000C94810B20FD09C0FC0123FD05C022FF9C
:100F400002C07383628351834083089544FD17C0B8
:100F500046FD17C0AB01BC01DA01FB01AA0FBB1FA4
:100F6000EE1FFF1F1094D1F74A0F5B1F6E1F7F1FEC
:100F7000CB01BA01660F771F881F991F09C033E0A4
:100F800001C034E0660F771F881F991F3150D1F7D9
:100F9000620F711D811D911D08950F931F93CF93B3
:100FA000DF938C01C8010E94740AEC0197FD08C010
:100FB0000E944A0A892BB1F7B801CE010E94EE0ABD
:100FC000CE01DF91CF911F910F9108958F929F9243
:100FD000AF92BF92EF92FF920F931F93CF93DF9345
:100FE0008C01D62F7A01B22E0E94740A9C013327FD
:100FF0002B32310531F02D32310561F48B2D8068B3
:10100000B82ED15011F480E068C0C8010E94740A63
:1010100097FDF9CFCB2DCD7F2B2D207309F5803394
:10102000F9F4AA24AA94AD0E09F443C0C8010E94A1
:10103000740A97FD3EC09C012F7D3327283531056A
:1010400049F4C264D250A9F1C8010E94740A97FF02
:1010500007C02FC0B6FE02C0C26001C0C261DA2D57
:10106000812C912C540120ED280F283080F0C4FFF2
:1010700004C0B8010E94EE0A19C02A3040F0C6FF31
:10108000F8CF2F7D3FEE320F363098F727504C2F98
:10109000C501B4010E94A6074B015C01C260D1509A
:1010A00059F0C8010E94740A97FFDDCFC1FD04C04A
:1010B000AACF812C912C5401C7FF08C0B094A094F2
:1010C00090948094811C911CA11CB11C2C2FB50103
:1010D000A401C7010E949A0781E0DF91CF911F917F
:1010E0000F91FF90EF90BF90AF909F908F900895D9
:1010F000A0E2B0E0EEE7F8E00C94680B5C01962EFD
:101100007A01F9018E010F5F1F4F680180E2D8015B
:101110001D928A95E9F7D50113968C9080E090E0B6
:10112000612C712C30E061E070E083FC259183FE3E
:1011300021918F01522E211103C080E090E092C0D6
:101140002E3511F4009751F1432F50E048175907FD
:101150003CF42D3559F12D3219F4772009F103C0F3
:10116000772009F46AC0452D469546954695D601E7
:10117000A40FB11D452D47708B0102C0000F111F38
:101180004A95E2F7A8015C91452B4C93651459F000
:10119000561410F45394E7CF5A94E5CF31E004C0CD
:1011A0007724739401C0712C0196BFCF772019F07A
:1011B0008E8180628E83311103C08824839417C08E
:1011C000F6019E012F5D3F4F8081809581932E1700
:1011D0003F07D1F7F2CFE114F10429F0D7018C9346
:1011E000F70131967F019A94812C9920F9F0C5017D
:1011F0000E94740A97FD18C0FC01FF2723E0F595B3
:10120000E7952A95E1F7EC0DFD1D208130E0AC015A
:101210004770552702C0359527954A95E2F720FD7E
:10122000DACFB5010E94EE0A811087CFE114F104F4
:1012300011F0D7011C92C80115C0422F4695469562
:101240004695D601A40FB11D422F47708B0102C0F5
:10125000000F111F4A95E2F7A8015C91452B4C93B2
:10126000622EA2CFA096EFE00C94840BA0E0B0E039
:10127000ECE3F9E00C94680B6C01EB015A01FC0102
:1012800017821682512CF601E380FE01E3FC859162
:10129000E3FE8191182FEF01882309F4EEC090E05E
:1012A0000E944A0A892B21F0C6010E94CD07EBCF8C
:1012B000153241F4FE01E3FC1591E3FE1191EF01BB
:1012C000153281F4C6010E94740A97FDD4C0412FE3
:1012D00050E09C01332724173507A9F2B6010E947C
:1012E000EE0ACBC01A3239F4E3FC1591E3FE1191FA
:1012F000EF0101E001C000E0F12C20ED210F2A30C8
:1013000080F402606F2D70E080E090E040E20E9487
:10131000A607F62EFE01E3FC1591E3FE1191EF0105
:10132000ECCF01FF03C0F11003C0A7C0FF24FA9463
:10133000183619F01C3651F010C0FE01E3FC15916F
:10134000E3FE1191EF01183641F408600460FE01DC
:10135000E3FC1591E3FE1191EF01112309F48DC017
:10136000612F70E088E690E00E94530A892B09F40F
:1013700084C000FD07C0F50180809180C501029600
:101380005C0102C0812C912C1E3651F4F60146817D
:10139000578160E070E0202FC4010E949A0773CF4C
:1013A0001336A9F401FD02C0FF24F394C6010E9484
:1013B000740A97FD60C08114910429F0F4018083C0
:1013C000C40101964C01FA94F110F0CF50C01B35C6
:1013D00059F49E01A4016F2DC6010E947808EC010A
:1013E000892B09F044C03EC0C6010E94CD0797FD7D
:1013F00042C01F3661F128F4143639F1193651F123
:1014000028C0133771F0153701F123C081149104FE
:1014100029F0F4016082C40101964C01FA94FF2086
:1014200071F0C6010E94740A3C0197FD08C00E9439
:101430004A0A892B59F3B601C3010E94EE0A8114AE
:101440009104A9F0F401108212C0006203C000618F
:1014500001C00064202FA4016F2DC6010E94E60781
:10146000811105C0F6018381807329F406C000FD57
:101470000ACF539408CF552019F0852D90E002C073
:101480008FEF9FEFCDB7DEB7EFE00C94840B992779
:101490008827089591110C94470A803219F08950D9
:1014A0008550C8F70895FC010590061621F000202C
:1014B000D9F7C00108953197CF010895FC01059037
:1014C000615070400110D8F7809590958E0F9F1F46
:1014D0000895FC016150704001900110D8F780958B
:1014E00090958E0F9F1F0895CF93DF93EC012B8172
:1014F00020FF33C026FF0AC02F7B2B838E819F8164
:1015000001969F838E838A8190E029C022FF0FC0BD
:10151000E881F9818081082E000C990B009719F45D
:1015200020622B831AC03196F983E8830EC0EA85C6
:10153000FB85099597FF09C02B81019611F080E288
:1015400001C080E1822B8B8308C02E813F812F5FF9
:101550003F4F3F832E83992702C08FEF9FEFDF918C
:10156000CF9108950F931F93CF93DF93FB012381B6
:1015700021FD03C08FEF9FEF2CC022FF16C04681D4
:101580005781248135814217530744F4A081B181EA
:101590009D012F5F3F4F318320838C9326813781BC
:1015A0002F5F3F4F3783268314C08B01EC01FB0173
:1015B0000084F185E02D0995892BE1F6D801169676
:1015C0008D919C911797019617969C938E931697E1
:1015D000CE01DF91CF911F910F910895FB012381DF
:1015E00020FF12C026FD10C08F3F3FEF930761F030
:1015F00082832F7D20642383268137812150310906
:1016000037832683992708958FEF9FEF0895FA0176
:10161000AA27283051F1203181F1E8946F936E7F31
:101620006E5F7F4F8F4F9F4FAF4FB1E03ED0B4E022
:101630003CD0670F781F891F9A1FA11D680F791F63
:101640008A1F911DA11D6A0F711D811D911DA11D74
:1016500020D009F468943F912AE0269F1124301984
:10166000305D3193DEF6CF010895462F4770405D1F
:101670004193B3E00FD0C9F7F6CF462F4F70405DCE
:101680004A3318F0495D31FD4052419302D0A9F729
:10169000EACFB4E0A6959795879577956795BA9523
:1016A000C9F700976105710508959B01AC010A2EE9
:1016B00006945795479537952795BA95C9F7620FC0
:1016C000731F841F951FA01D08952F923F924F9264
:1016D0005F926F927F928F929F92AF92BF92CF92C2
:1016E000DF92EF92FF920F931F93CF93DF93CDB7CB
:1016F000DEB7CA1BDB0B0FB6F894DEBF0FBECDBF43
:1017000009942A88398848885F846E847D848C8413
:101710009B84AA84B984C884DF80EE80FD800C811C
:101720001B81AA81B981CE0FD11D0FB6F894DEBFFF
:0C1730000FBECDBFED010895F894FFCF6F
:10173C00FF5457492054494D454F55540D0A000D3F
:10174C000A4F4B0D0A000D0A4552524F5220493296
:10175C00430D0A000D0A464F524D41544F2045523D
:10176C00524F4E454F0D0A000D46454348413A2015
:10177C00253032752F253032752F253032752048A3
:10178C004F52413A20253032753A253032753A2580
:10179C003032750D000A434F4D414E444F533A0DB4
:1017AC000A005345542054494D452044442F4D4D77
:1017BC002F59592048483A4D4D3A53530D0A00536E
:1017CC00455420414C41524D2048483A4D4D0D0A4C
:1017DC00004F4E00484F5241204F4E0D0A004F46CD
:1017EC004600484F5241204F46460D0A005345547F
:1017FC002054494D4520007365742074696D652033
:10180C000053455420414C41524D200073657420C7
:10181C00616C61726D2000434F4D414E444F204529
:10182C0052524F4E454F0D0A2000256868753A25D7
:10183C00686875000D0A416C61726D6120636F6E92
:10184C006669677572616461207061726120253010
:10185C0032643A253032640D0A0A00464F524D412B
:10186C00544F204552524F4E454F2E205553415206
:10187C002048483A4D4D0D0A000D0A414C41524D3D
:06188C0041210D0A0000DD
:00000001FF
