:100000000C943A000C9457000C9457000C94570031
:100010000C9457000C9457000C9457000C94570004
:100020000C9457000C9457000C9457000C945700F4
:100030000C9457000C9457000C9457000C945700E4
:100040000C9457000C9457000C9436010C945B01EF
:100050000C9457000C9457000C9457000C945700C4
:100060000C9457000C9457006364696E6F7073753D
:1000700078585B0011241FBECFEFD8E0DEBFCDBFA4
:1000800011E0A0E0B1E0E6EFF1E102C005900D92D1
:10009000A03BB107D9F722E0A0EBB1E001C01D926F
:1000A000A635B207E1F70E94E7010C94F9080C9419
:1000B0000000982F92959F708F70990F292F220F13
:1000C000220F920F890F08959DEC899F912D112485
:1000D000969596959695392F330F232F220F220F41
:1000E000230F821B282F30E1939FC0011124822B04
:1000F0000895CF93DF93EC0180ED0E94F9008831E1
:10010000B1F580E00E94110181ED0E94F900803478
:1001100081F581E00E941B010E945900888381E0E3
:100120000E941B010E945900898381E00E941B01EB
:100130000E9459008A8381E00E941B010E9459009D
:100140008B8381E00E941B010E9459008C8381E017
:100150000E941B010E9459008D8380E00E941B01B8
:100160000E9459008E830E940D0180E003C081E04F
:1001700001C081E0DF91CF910895CF93DF93EC012F
:1001800080ED0E94F900883151F580E00E94110154
:1001900088810E9464000E94110189810E9464008C
:1001A0000E9411018A810E9464000E9411018B81CA
:1001B0000E9464000E9411018C810E9464000E94D0
:1001C00011018D810E9464000E9411018E810E94A4
:1001D00064000E9411010E940D0180E001C081E0D5
:1001E000DF91CF9108951092B90088E48093B80010
:1001F000089594EA9093BC009091BC009923E4F791
:100200008093BB0084E88093BC008091BC0088236D
:10021000E4F78091B900887F089584E98093BC0059
:1002200008958093BB0084E88093BC008091BC005B
:100230008823E4F70895811102C084E801C084ECAA
:100240008093BC008091BC008823E4F78091BB00C0
:1002500008951092C50087E68093C40088E98093D2
:10026000C10086E08093C200789408951F920F9297
:100270000FB60F9211248F939F93EF93FF9380916A
:10028000F3018F5F803408F080E0E091F301F0E04B
:100290009091C600EC50FE4F90839091F20198131C
:1002A0008093F301FF91EF919F918F910F900FBE7B
:1002B0000F901F9018951F920F920FB60F92112456
:1002C0008F939F93EF93FF939091B1018091B00131
:1002D000981306C0E1ECF0E080818F7D808310C030
:1002E000E091B001F0E0EE54FE4F80818093C600B3
:1002F0008091B0018F5F803408F080E08093B0017E
:10030000FF91EF919F918F910F900FBE0F901F90D3
:100310001895DC0113C02091B1012F5F203408F043
:1003200020E09091B0019217E1F3E091B101F0E08B
:100330001196EE54FE4F80832093B1018C91811170
:10034000EACFE1ECF0E080818062808308958091C3
:10035000F3019091F201891B8F7308959091F3013D
:100360008091F201981779F0E091F201F0E0EC5001
:10037000FE4F80819091F2019F5F903408F090E0F1
:100380009093F201089580E008951CC00E94AE0190
:100390008D3011F08A3051F4E0913402F0E0EB5CE2
:1003A000FD4F10821092340281E008959091340242
:1003B0009F3140F4E92FF0E0EB5CFD4F80839F5FBD
:1003C000909334020E94A7018111E0CF0895CF934A
:1003D000DF93CDB7DEB7E7970FB6F894DEBF0FBE59
:1003E000CDBF8AB182608AB90E9429010E94F300C0
:1003F00080E091E00E9489018CE191E00E948901F6
:1004000000E010E002C000E010E00E94C501882377
:1004100041F160E371E085E392E00E94BA02892B2A
:1004200021F481E08093550218C063E371E085E315
:1004300092E00E94BA02892B19F4109255020DC065
:1004400049E050E067E371E085E392E00E94CD026D
:10045000892B19F482E0809355021092350200E056
:1004600010E080915502813061F020F0823009F473
:1004700043C0CBCF8FE39CE90197F1F700C00000A8
:10048000C4CF8FE39CE90197F1F700C00000065F3D
:100490001F4F083E93E0190708F4B7CFCE0101962D
:1004A0000E9479008111AFCF59814A813B812F8110
:1004B0009E818D811F925F931F924F931F923F9356
:1004C0001F922F931F929F931F928F9381E491E02D
:1004D0009F938F938E01085F1F4F1F930F930E946E
:1004E000DB02C8010E9489010FB6F894DEBF0FBE7F
:1004F000CDBF00E010E089CFCE0108969F938F9387
:1005000001969F938F9301969F938F9304969F9349
:100510008F9301979F938F9301979F938F938FE66C
:1005200091E09F938F938EE392E09F938F930E942D
:10053000FD020FB6F894DEBF0FBECDBF069791F453
:1005400081E08B87CE0108960E94BD00811105C015
:100550008DE891E00E94890109C082E991E00E9442
:10056000890104C08EE991E00E94890181E08093B5
:1005700055024BCFFB01DC018D9181341CF08B3592
:100580000CF4805E619161341CF06B350CF4605E9C
:10059000861B611189F3990B0895FB01DC01415021
:1005A000504030F08D910190801919F40020B9F776
:1005B000881B990B0895AEE0B0E0E1EEF2E00C94F8
:1005C000D0080D891E8986E08C831A8309838FEFFA
:1005D0009FE79E838D83AE01475E5F4F6F89788D65
:1005E000CE0101960E941603EF81F885E00FF11FFE
:1005F00010822E96E4E00C94EC08AEE0B0E0E3E06C
:10060000F3E00C94D20885E08C838B899C899A83D3
:100610008983AE01495E5F4F6D897E89CE01019667
:100620000E9493062E96E2E00C94EE08ABE0B0E058
:10063000ECE1F3E00C94C2086C017B018A01FC013F
:1006400017821682838181FFCCC1CE0101963C01C5
:10065000F6019381F70193FD859193FF81917F01CD
:10066000882309F4BAC1853239F493FD859193FF4B
:1006700081917F01853229F4B60190E00E940C0837
:10068000E7CF912C212C312CFFE1F315D8F08B32E0
:1006900079F038F4803279F08332A1F4232D20618F
:1006A0001DC08D3261F0803369F4232D216016C0A6
:1006B000832D8260382EE32DE4603E2E2AC0F32D78
:1006C000F8601DC037FC2DC020ED280F2A3040F007
:1006D0008E32B9F436FC81C1232D2064322E19C02C
:1006E00036FE06C08AE0989E200D1124922E11C07D
:1006F000EAE02E9E200D1124222EF32DF0623F2ED3
:1007000008C08C3621F4832D8068382E02C08836CC
:1007100041F4F70193FD859193FF81917F01811150
:10072000B3CF982F9F7D9554933028F40C5F1F4FC3
:100730009FE399830DC0833631F0833771F08335A1
:1007400009F059C021C0F801808189830E5F1F4FD5
:1007500088248394912C530113C02801F2E04F0E9A
:10076000511CF801A080B18036FE03C0692D70E0F5
:1007700002C06FEF7FEFC5010E94C3074C018201E9
:10078000F32DFF773F2E16C0280122E0420E511CA8
:10079000F801A080B18036FE03C0692D70E002C070
:1007A0006FEF7FEFC5010E94B8074C01F32DF06891
:1007B0003F2E820133FC1BC0822D90E088169906E3
:1007C000B0F4B60180E290E00E940C082A94F4CFC5
:1007D000F50137FC859137FE81915F01B60190E00C
:1007E0000E940C0821102A9421E0821A9108811499
:1007F000910471F7E8C0843611F0893641F5F801AB
:1008000037FE07C060817181828193810C5F1F4F29
:1008100008C060817181072E000C880B990B0E5F58
:100820001F4FF32DFF763F2E97FF09C090958095BF
:10083000709561957F4F8F4F9F4FF0683F2E2AE054
:1008400030E0A3010E946108882E861845C08537D4
:1008500031F4232D2F7EB22E2AE030E025C0932DD7
:10086000997FB92E8F36C1F018F4883579F0B5C06C
:10087000803719F0883721F0B0C0E92FE061BE2E33
:10088000B4FE0DC0FB2DF460BF2E09C034FE0AC0BB
:10089000292F2660B22E06C028E030E005C020E1F6
:1008A00030E002C020E132E0F801B7FE07C060810D
:1008B0007181828193810C5F1F4F06C060817181BD
:1008C00080E090E00E5F1F4FA3010E946108882E18
:1008D0008618FB2DFF773F2E36FE0DC0232D2E7F71
:1008E000A22E891458F434FE0BC032FC09C0832DAB
:1008F0008E7EA82E05C0B82CA32C03C0B82C01C036
:10090000B92CA4FE0FC0FE01E80DF11D80818033DB
:1009100021F49A2D997EA92E09C0A2FE06C0B39497
:10092000B39404C08A2D867809F0B394A3FC11C057
:10093000A0FE06C0B21488F4280C922C9B180EC09E
:10094000B21460F4B60180E290E00E940C08B39407
:10095000F7CFB21418F42B1802C0982C212CA4FE47
:1009600010C0B60180E390E00E940C08A2FE17C000
:10097000A1FC03C088E790E002C088E590E0B601E2
:100980000CC08A2D867859F0A1FE02C08BE201C00E
:1009900080E2A7FC8DE2B60190E00E940C08891469
:1009A00038F4B60180E390E00E940C089A94F7CFE7
:1009B0008A94F301E80DF11D8081B60190E00E9458
:1009C0000C088110F5CF222009F442CEB60180E256
:1009D00090E00E940C082A94F6CFF6018681978158
:1009E00002C08FEF9FEF2B96E2E10C94DE0820FD12
:1009F00009C0FC0123FD05C022FF02C0738362838E
:100A000051834083089544FD17C046FD17C0AB01D4
:100A1000BC01DA01FB01AA0FBB1FEE1FFF1F1094E0
:100A2000D1F74A0F5B1F6E1F7F1FCB01BA01660F04
:100A3000771F881F991F09C033E001C034E0660F9B
:100A4000771F881F991F3150D1F7620F711D811DCB
:100A5000911D08950F931F93CF93DF938C01C801CD
:100A60000E94CE07EC0197FD08C00E94A407892BC5
:100A7000B1F7B801CE010E944808CE01DF91CF91B5
:100A80001F910F9108958F929F92AF92BF92EF9214
:100A9000FF920F931F93CF93DF938C01D62F7A0190
:100AA000B22E0E94CE079C0133272B32310531F044
:100AB0002D32310561F48B2D8068B82ED15011F4A0
:100AC00080E068C0C8010E94CE0797FDF9CFCB2D0A
:100AD000CD7F2B2D207309F58033F9F4AA24AA9435
:100AE000AD0E09F443C0C8010E94CE0797FD3EC079
:100AF0009C012F7D33272835310549F4C264D2503B
:100B0000A9F1C8010E94CE0797FF07C02FC0B6FE0B
:100B100002C0C26001C0C261DA2D812C912C540147
:100B200020ED280F283080F0C4FF04C0B8010E94D7
:100B3000480819C02A3040F0C6FFF8CF2F7D3FEE9D
:100B4000320F363098F727504C2FC501B4010E9460
:100B500003054B015C01C260D15059F0C8010E94ED
:100B6000CE0797FFDDCFC1FD04C0AACF812C912C09
:100B70005401C7FF08C0B094A09490948094811C45
:100B8000911CA11CB11C2C2FB501A401C7010E940E
:100B9000F70481E0DF91CF911F910F91FF90EF90CB
:100BA000BF90AF909F908F900895A0E2B0E0EBEDE2
:100BB000F5E00C94C5085C01962E7A01F9018E01CE
:100BC0000F5F1F4F680180E2D8011D928A95E9F7F7
:100BD000D50113968C9080E090E0612C712C30E070
:100BE00061E070E083FC259183FE21918F01522EFC
:100BF000211103C080E090E092C02E3511F40097DF
:100C000051F1432F50E0481759073CF42D3559F165
:100C10002D3219F4772009F103C0772009F46AC056
:100C2000452D469546954695D601A40FB11D452DF7
:100C300047708B0102C0000F111F4A95E2F7A8010F
:100C40005C91452B4C93651459F0561410F4539451
:100C5000E7CF5A94E5CF31E004C07724739401C004
:100C6000712C0196BFCF772019F08E8180628E8320
:100C7000311103C08824839417C0F6019E012F5DB3
:100C80003F4F8081809581932E173F07D1F7F2CF98
:100C9000E114F10429F0D7018C93F70131967F011B
:100CA0009A94812C9920F9F0C5010E94CE0797FDF6
:100CB00018C0FC01FF2723E0F595E7952A95E1F799
:100CC000EC0DFD1D208130E0AC014770552702C0BE
:100CD000359527954A95E2F720FDDACFB5010E94B8
:100CE0004808811087CFE114F10411F0D7011C925C
:100CF000C80115C0422F469546954695D601A40FCA
:100D0000B11D422F47708B0102C0000F111F4A9581
:100D1000E2F7A8015C91452B4C93622EA2CFA096DE
:100D2000EFE00C94E108A0E0B0E0E9E9F6E00C9413
:100D3000C5086C01EB015A01FC0117821682512C87
:100D4000F601E380FE01E3FC8591E3FE8191182F1B
:100D5000EF01882309F4EEC090E00E94A407892BDC
:100D600021F0C6010E942A05EBCF153241F4FE01A5
:100D7000E3FC1591E3FE1191EF01153281F4C601F8
:100D80000E94CE0797FDD4C0412F50E09C0133272D
:100D900024173507A9F2B6010E944808CBC01A32C1
:100DA00039F4E3FC1591E3FE1191EF0101E001C07C
:100DB00000E0F12C20ED210F2A3080F402606F2D2D
:100DC00070E080E090E040E20E940305F62EFE0114
:100DD000E3FC1591E3FE1191EF01ECCF01FF03C09D
:100DE000F11003C0A7C0FF24FA94183619F01C367E
:100DF00051F010C0FE01E3FC1591E3FE1191EF01EB
:100E0000183641F408600460FE01E3FC1591E3FE2E
:100E10001191EF01112309F48DC0612F70E088E674
:100E200090E00E94AD07892B09F484C000FD07C043
:100E3000F50180809180C50102965C0102C0812C81
:100E4000912C1E3651F4F6014681578160E070E026
:100E5000202FC4010E94F70473CF1336A9F401FDBB
:100E600002C0FF24F394C6010E94CE0797FD60C024
:100E70008114910429F0F4018083C40101964C018E
:100E8000FA94F110F0CF50C01B3559F49E01A40123
:100E90006F2DC6010E94D505EC01892B09F044C0D5
:100EA0003EC0C6010E942A0597FD42C01F3661F16F
:100EB00028F4143639F1193651F128C0133771F07E
:100EC000153701F123C08114910429F0F4016082E7
:100ED000C40101964C01FA94FF2071F0C6010E94F2
:100EE000CE073C0197FD08C00E94A407892B59F347
:100EF000B601C3010E94480881149104A9F0F401CD
:100F0000108212C0006203C0006101C00064202F83
:100F1000A4016F2DC6010E944305811105C0F60191
:100F20008381807329F406C000FD0ACF539408CF53
:100F3000552019F0852D90E002C08FEF9FEFCDB7BF
:100F4000DEB7EFE00C94E10891110C94BF088032F9
:100F500019F089508550C8F70895FC0105900616D0
:100F600021F00020D9F7C00108953197CF010895ED
:100F7000FC010590615070400110D8F78095909564
:100F80008E0F9F1F0895FC01615070400190011069
:100F9000D8F7809590958E0F9F1F0895CF93DF937C
:100FA000EC012B8120FF33C026FF0AC02F7B2B834F
:100FB0008E819F8101969F838E838A8190E029C0D4
:100FC00022FF0FC0E881F9818081082E000C990B67
:100FD000009719F420622B831AC03196F983E883B5
:100FE0000EC0EA85FB85099597FF09C02B81019604
:100FF00011F080E201C080E1822B8B8308C02E813A
:101000003F812F5F3F4F3F832E83992702C08FEF91
:101010009FEFDF91CF9108950F931F93CF93DF93AD
:10102000FB01238121FD03C08FEF9FEF2CC022FF26
:1010300016C046815781248135814217530744F4F5
:10104000A081B1819D012F5F3F4F318320838C931D
:10105000268137812F5F3F4F3783268314C08B0152
:10106000EC01FB010084F185E02D0995892BE1F667
:10107000D80116968D919C911797019617969C937F
:101080008E931697CE01DF91CF911F910F91089506
:10109000FB01238120FF12C026FD10C08F3F3FEFD0
:1010A000930761F082832F7D20642383268137811B
:1010B0002150310937832683992708958FEF9FEFB9
:1010C0000895FA01AA27283051F1203181F1E894DE
:1010D0006F936E7F6E5F7F4F8F4F9F4FAF4FB1E02B
:1010E0003ED0B4E03CD0670F781F891F9A1FA11D26
:1010F000680F791F8A1F911DA11D6A0F711D811D27
:10110000911DA11D20D009F468943F912AE0269FEB
:1011100011243019305D3193DEF6CF010895462F4A
:101120004770405D4193B3E00FD0C9F7F6CF462F2B
:101130004F70405D4A3318F0495D31FD4052419394
:1011400002D0A9F7EACFB4E0A69597958795779551
:101150006795BA95C9F700976105710508959B01D8
:10116000AC010A2E06945795479537952795BA9561
:10117000C9F7620F731F841F951FA01D089599273B
:10118000882708952F923F924F925F926F927F929D
:101190008F929F92AF92BF92CF92DF92EF92FF9287
:1011A0000F931F93CF93DF93CDB7DEB7CA1BDB0B33
:1011B0000FB6F894DEBF0FBECDBF09942A883988D8
:1011C00048885F846E847D848C849B84AA84B984DF
:1011D000C884DF80EE80FD800C811B81AA81B981EB
:1011E000CE0FD11D0FB6F894DEBF0FBECDBFED01FF
:0611F0000895F894FFCF02
:1011F6000D0A2A2A2A2052544320414C41524D209E
:10120600434C4F434B202A2A2A0D0A004F4E0D0A03
:101216004F46460D0A5345542054494D450D0A0084
:101226004F4E004F4646005345542054494D4520E5
:10123600000D46454348413A253032752F25303258
:10124600752F2530327520484F52413A2530327578
:101256003A253032753A2530327520202020002577
:101266006868752F256868752F2568687520256854
:1012760068753A256868753A25686875004F4B0D9C
:101286000A004552524F52204932430D0A00464F3A
:10129600524D41544F204552524F4E454F0D0A0074
:00000001FF
