:100000000C943A000C9457000C9457000C94570031
:100010000C9457000C9457000C9457000C94570004
:100020000C9457000C9457000C9457000C945700F4
:100030000C9457000C9457000C9457000C945700E4
:100040000C9457000C9457000C94A7010C94CC010D
:100050000C9457000C9457000C9457000C945700C4
:100060000C9457000C9457006364696E6F7073753D
:1000700078585B0011241FBECFEFD8E0DEBFCDBFA4
:1000800012E0A0E0B1E0ECE0F8E102C005900D92D2
:10009000A63FB107D9F723E0A6EFB2E001C01D9259
:1000A000A13AB207E1F70E9412040C94040C0C94DC
:1000B0000000982F92959F708F70990F292F220F13
:1000C000220F920F890F08959DEC899F912D112485
:1000D000969596959695392F330F232F220F220F41
:1000E000230F821B282F30E1939FC0011124822B04
:1000F0000895CF93DF93EC0180ED0E945C0188317D
:1001000051F580E00E94820188810E9464000E9473
:10011000820189810E9464000E9482018A810E947A
:1001200064000E9482018B810E9464000E9482010F
:100130008C810E9464000E9482018D810E94640073
:100140000E9482018E810E9464000E9482010E94AE
:100150007E0180E001C081E0DF91CF910895CF93CF
:10016000DF93EC0182E091E00E94FA0180ED0E94B1
:100170005C018F3F31F481E191E00E94FA0181E05E
:100180004FC0883131F087E291E00E94FA0181E0AE
:1001900047C080E00E94820181ED0E945C018F3F98
:1001A00031F489E391E00E94FA0181E039C08034A2
:1001B00031F08FE491E00E94FA0181E031C081E0EA
:1001C0000E948C010E945900888381E00E948C016A
:1001D0000E945900898381E00E948C010E9459008D
:1001E0008A8381E00E948C010E9459008B8381E008
:1001F0000E948C010E9459008C8381E00E948C0136
:100200000E9459008D8380E00E948C010E94590059
:100210008E8381E691E00E94FA010E947E0180E0D7
:10022000DF91CF910895CF9380ED0E945C018831DA
:1002300099F48FE00E9482010E947E0181ED0E946C
:100240005C01803459F480E00E948C01C82F0E9428
:100250007E018C2F817003C080E001C080E0CF91CF
:10026000089580ED0E945C01883141F48FE00E9486
:10027000820180E00E9482010E947E01089580E058
:1002800090E00BC00196803325E7920730F08EE6B0
:1002900091E00E94FA0181E008952091BC002223A0
:1002A0008CF780E008951092B90088E48093B8003C
:1002B00084E08093BC000895CF93C82F84EA809394
:1002C000BC000E943F01811114C08091B900887F59
:1002D000883011F0803181F4C093BB0084E88093B2
:1002E000BC000E943F01811106C08091B900887F47
:1002F00003C08FEF01C08FEFCF91089584E9809301
:10030000BC0008958093BB0084E88093BC0080917A
:10031000BC008823E4F70895811102C084E801C07D
:1003200084EC8093BC008091BC008823E4F780912A
:10033000BB0008951092C50087E68093C40088E949
:100340008093C10086E08093C200789408951F9244
:100350000F920FB60F9211248F939F93EF93FF93F9
:10036000809139038F5F803408F080E0E091390399
:10037000F0E09091C600E65CFC4F908390913803CA
:10038000981380933903FF91EF919F918F910F9074
:100390000FBE0F901F9018951F920F920FB60F92DD
:1003A00011248F939F93EF93FF939091F702809185
:1003B000F602981306C0E1ECF0E080818F7D808327
:1003C00010C0E091F602F0E0E850FD4F808180938C
:1003D000C6008091F6028F5F803408F080E0809341
:1003E000F602FF91EF919F918F910F900FBE0F90AA
:1003F0001F901895DC0113C02091F7022F5F203465
:1004000008F020E09091F6029217E1F3E091F702F4
:10041000F0E01196E850FD4F80832093F7028C9115
:100420008111EACFE1ECF0E0808180628083089561
:100430008091390390913803891B8F7308959091AF
:10044000390380913803981779F0E0913803F0E090
:10045000E65CFC4F8081909138039F5F903408F0F8
:1004600090E090933803089580E00895CF93DF9350
:1004700033C00E941F02C82F883011F08F3741F41B
:1004800080917F03882341F1815080937F0324C0B2
:100490008D3011F08A3071F4E0917F03F0E0E05884
:1004A000FC4F108210927F038DED91E00E94FA01C3
:1004B00081E016C0D0917F03DF3170F490E00E949C
:1004C000BE05892B49F081E08D0F80937F03ED2FCE
:1004D000F0E0E058FC4FC0830E9418028111C9CFA0
:1004E000DF91CF910895EF92FF920F931F93CF93D7
:1004F000DF93CDB7DEB727970FB6F894DEBF0FBEF8
:10050000CDBFFC0101900020E9F73197E81BF90B02
:10051000719709F0F6C0DC0112962C9112972F32D8
:1005200009F0EFC015962C9115972F3209F0E9C00C
:1005300018962C911897203209F0E3C01B962C9145
:100540001B972A3309F0DDC01E962C911E972A3383
:1005500009F0D7C00C91202F30E0205331092A3008
:10056000310508F0CEC011961C911197212F30E073
:10057000205331092A30310508F0C3C013962C915D
:10058000139730E0205331092A30310508F0B9C003
:1005900014962C91149730E0205331092A303105FC
:1005A00008F0AFC016965C911697252F30E02053C7
:1005B00031092A30310508F0A4C01796BC912B2FC1
:1005C00030E0205331092A30310508F09AC0FC018F
:1005D0004185242F30E0205331092A30310508F0BD
:1005E00090C0A2852A2F30E0205331092A303105EE
:1005F00008F087C03485632F70E0605371096A305A
:10060000710508F07EC07585E72EF12CF0E3EF1A36
:10061000F1082AE0E216F10408F073C0FC01278516
:10062000E22EF12CF0E3EF1AF1086AE0E616F1048D
:1006300008F067C0FC016089E62EF12CF0E3EF1AA8
:10064000F108EAE0EE16F10408F05BC0E02FF0E0FC
:10065000F097EE0FFE2FFF0FFF0FEF0FE10FE053AC
:10066000ED83FC011381E12FF0E0F097EE0FFE2FF8
:10067000FF0FFF0F1E2F1F0FFC018481810F80537E
:100680008E83852F90E0C097880F982F990F990F30
:10069000890F8B0F80538F83842F90E0C097880F32
:1006A000982F990F990F890F8A0F80538B83832F6F
:1006B00090E0C097880F982F990F990F890F870F97
:1006C00080538A83822F90E0C097880F982F990FCC
:1006D000990F890F860F8053898381E08C83CE0127
:1006E00001960E947900811106C08CE791E00E947A
:1006F000FA0181E00BC081E891E00E94FA0180E0FC
:1007000005C08DE891E00E94FA0180E027960FB6BF
:10071000F894DEBF0FBECDBFDF91CF911F910F9137
:10072000FF90EF9008950F931F93CF93DF93CDB772
:10073000DEB7E9970FB6F894DEBF0FBECDBFCE018E
:1007400001960E94AF0081114DC0898190910001F6
:10075000891731F1809300015A814B813F812E81AD
:100760009D811F928F931F925F931F924F931F92B1
:100770003F931F922F931F929F938FE991E09F9336
:100780008F938E01085F1F4F1F930F930E94E60502
:10079000C8010E94FA010FB6F894DEBF0FBECDBFAC
:1007A00080917E038823D9F080917B03811117C04B
:1007B0009B8180917C03981312C08A8190917D0364
:1007C00089130DC090910101891749F081E0809350
:1007D0007B0310927A038BEC91E00E94FA018A81EC
:1007E00080930101E9960FB6F894DEBF0FBECDBF2E
:1007F000DF91CF911F910F91089580EE91E00E94BB
:10080000FA0183E292E00E94FA018BE492E00E94F6
:10081000FA018CEE91E00E94FA0189E092E00E94D8
:10082000FA010895CF93DF93CDB7DEB7C054D10955
:100830000FB6F894DEBF0FBECDBF8AB182608AB911
:1008400087B18F7C87B988B1806388B90E949A018B
:100850000E94530178941FEF80917E03882349F012
:100860000E941301882329F081E080937B030E947A
:10087000310180917E03882309F180917B038111EE
:100880001DC0CE0101960E94AF00811117C09B814F
:1008900080917C03981312C09A8180917D039813F4
:1008A0000DC0898181110AC081E080937B03109281
:1008B0007A0384E08093A0030E9431010E943602F3
:1008C000882309F48EC06BE172E080E893E00E9417
:1008D000C505892B09F046C081E08093A0038EE115
:1008E00092E00E94FA01CE01CA960E94AF008111E7
:1008F00076C088E292E00E94FA019AAD80910001F0
:10090000981709F46CC085E392E00E94FA018AAD61
:10091000809300015BAD4CAD21963FAD21972FAD8B
:100920009EAD1F928F931F925F931F924F931F92C2
:100930003F931F922F931F929F938FE991E09F9374
:100940008F937E0128E0E20EF11CFF92EF920E944D
:10095000E605C7010E94FA010FB6F894DEBF0FBE8C
:10096000CDBF3DC062E472E080E893E00E94C5051F
:10097000892B39F41092A00386E492E00E94FA01D8
:100980002EC049E050E061E572E080E893E00E940B
:10099000D805892B81F48BE592E00E94FA0180E86A
:1009A00093E00E94FA0184E692E00E94FA0182E05C
:1009B0008093A00314C04AE050E068E672E080E84B
:1009C00093E00E94D805892B21F483E08093A00353
:1009D00006C083E792E00E94FA010E94FD03109294
:1009E00080038091A003181731F0811102C00E948A
:1009F000FD031091A0038091A003823069F018F4E8
:100A0000813039F0B2C0833099F0843009F492C05B
:100A1000ACC00E949303A9C089E893E00E947302CE
:100A2000813019F48093A003A0C01092A0039DC050
:100A30008DE793E09F938F938CE793E09F938F9341
:100A400083E892E09F938F938AE893E09F938F933C
:100A50000E9408060FB6F894DEBF0FBECDBF029706
:100A600009F083C00F2EFCE7EF2EF3E0FF2EF02DF0
:100A7000F70181810E9464008AAFF70180810E94A2
:100A800064008BAF80E88CAF8DAF80ED0E945C017D
:100A9000883109F048C087E00E94820100E00AC066
:100AA000EAE3F0E0EC0FFD1FE00FF11D80810E94F2
:100AB00082010F5F0430A0F30E947E0180ED0E944E
:100AC0005C01883159F58EE00E94820185E00E9428
:100AD00082010E947E01ECE7F3E081E082831092C4
:100AE0007B0310927A03918180811F929F931F92C2
:100AF0008F938DE892E09F938F937E01F8E0EF0E45
:100B0000F11CFF92EF920E94E605C7010E94FA01D4
:100B10000FB6F894DEBF0FBECDBF09C081EB92E0E7
:100B20000E94FA0104C08DEC92E00E94FA0110923A
:100B3000A0031BC0CE0101960E94AF00811115C019
:100B4000898190910001891781F0809300018BEEDB
:100B500092E00E94FA0180917A038F5F80937A037A
:100B6000853018F081E08093A0038FE39CE9019722
:100B7000F1F700C0000070CE803209F091110C94A2
:100B8000AF0A80528F55D8F70895FB01DC018D9193
:100B900081341CF08B350CF4805E619161341CF063
:100BA0006B350CF4605E861B611189F3990B089517
:100BB000FB01DC014150504030F08D9101908019D3
:100BC00019F40020B9F7881B990B0895AEE0B0E046
:100BD000ECEEF5E00C94DB0B0D891E8986E08C832E
:100BE0001A8309838FEF9FE79E838D83AE01475E53
:100BF0005F4F6F89788DCE0101960E942106EF81AB
:100C0000F885E00FF11F10822E96E4E00C94F70BAC
:100C1000AEE0B0E0EEE0F6E00C94DD0B85E08C8316
:100C20008B899C899A838983AE01495E5F4F6D8968
:100C30007E89CE0101960E949E092E96E2E00C94D8
:100C4000F90BABE0B0E0E7E2F6E00C94CD0B6C0101
:100C50007B018A01FC0117821682838181FFCCC14E
:100C6000CE0101963C01F6019381F70193FD859138
:100C700093FF81917F01882309F4BAC1853239F449
:100C800093FD859193FF81917F01853229F4B6010F
:100C900090E00E941A0BE7CF912C212C312CFFE120
:100CA000F315D8F08B3279F038F4803279F0833252
:100CB000A1F4232D20611DC08D3261F0803369F4D1
:100CC000232D216016C0832D8260382EE32DE46031
:100CD0003E2E2AC0F32DF8601DC037FC2DC020ED3C
:100CE000280F2A3040F08E32B9F436FC81C1232D12
:100CF0002064322E19C036FE06C08AE0989E200D70
:100D00001124922E11C0EAE02E9E200D1124222ED5
:100D1000F32DF0623F2E08C08C3621F4832D8068BD
:100D2000382E02C0883641F4F70193FD859193FF78
:100D300081917F018111B3CF982F9F7D955493307E
:100D400028F40C5F1F4F9FE399830DC0833631F069
:100D5000833771F0833509F059C021C0F8018081D3
:100D600089830E5F1F4F88248394912C530113C0F5
:100D70002801F2E04F0E511CF801A080B18036FE30
:100D800003C0692D70E002C06FEF7FEFC5010E94C4
:100D9000D10A4C018201F32DFF773F2E16C02801A6
:100DA00022E0420E511CF801A080B18036FE03C043
:100DB000692D70E002C06FEF7FEFC5010E94C60A87
:100DC0004C01F32DF0683F2E820133FC1BC0822DB5
:100DD00090E088169906B0F4B60180E290E00E9497
:100DE0001A0B2A94F4CFF50137FC859137FE8191D7
:100DF0005F01B60190E00E941A0B21102A9421E0B5
:100E0000821A91088114910471F7E8C0843611F0B8
:100E1000893641F5F80137FE07C060817181828112
:100E200093810C5F1F4F08C060817181072E000CF9
:100E3000880B990B0E5F1F4FF32DFF763F2E97FF08
:100E400009C090958095709561957F4F8F4F9F4F0A
:100E5000F0683F2E2AE030E0A3010E946F0B882E3D
:100E6000861845C0853731F4232D2F7EB22E2AE017
:100E700030E025C0932D997FB92E8F36C1F018F43C
:100E8000883579F0B5C0803719F0883721F0B0C0C7
:100E9000E92FE061BE2EB4FE0DC0FB2DF460BF2E25
:100EA00009C034FE0AC0292F2660B22E06C028E0F1
:100EB00030E005C020E130E002C020E132E0F8017E
:100EC000B7FE07C060817181828193810C5F1F4FE3
:100ED00006C06081718180E090E00E5F1F4FA3012A
:100EE0000E946F0B882E8618FB2DFF773F2E36FE53
:100EF0000DC0232D2E7FA22E891458F434FE0BC072
:100F000032FC09C0832D8E7EA82E05C0B82CA32CE0
:100F100003C0B82C01C0B92CA4FE0FC0FE01E80D1F
:100F2000F11D8081803321F49A2D997EA92E09C06C
:100F3000A2FE06C0B394B39404C08A2D867809F04B
:100F4000B394A3FC11C0A0FE06C0B21488F4280C10
:100F5000922C9B180EC0B21460F4B60180E290E0AF
:100F60000E941A0BB394F7CFB21418F42B1802C0D6
:100F7000982C212CA4FE10C0B60180E390E00E94C2
:100F80001A0BA2FE17C0A1FC03C088E790E002C0C4
:100F900088E590E0B6010CC08A2D867859F0A1FE54
:100FA00002C08BE201C080E2A7FC8DE2B60190E0B6
:100FB0000E941A0B891438F4B60180E390E00E9475
:100FC0001A0B9A94F7CF8A94F301E80DF11D8081F2
:100FD000B60190E00E941A0B8110F5CF222009F48F
:100FE00042CEB60180E290E00E941A0B2A94F6CF1E
:100FF000F6018681978102C08FEF9FEF2B96E2E189
:101000000C94E90B20FD09C0FC0123FD05C022FF63
:1010100002C07383628351834083089544FD17C0E7
:1010200046FD17C0AB01BC01DA01FB01AA0FBB1FD3
:10103000EE1FFF1F1094D1F74A0F5B1F6E1F7F1F1B
:10104000CB01BA01660F771F881F991F09C033E0D3
:1010500001C034E0660F771F881F991F3150D1F708
:10106000620F711D811D911D08950F931F93CF93E2
:10107000DF938C01C8010E94DC0AEC0197FD08C0D7
:101080000E94B20A892BB1F7B801CE010E94560B1B
:10109000CE01DF91CF911F910F9108958F929F9272
:1010A000AF92BF92EF92FF920F931F93CF93DF9374
:1010B0008C01D62F7A01B22E0E94DC0A9C013327C4
:1010C0002B32310531F02D32310561F48B2D8068E2
:1010D000B82ED15011F480E068C0C8010E94DC0A2B
:1010E00097FDF9CFCB2DCD7F2B2D207309F58033C4
:1010F000F9F4AA24AA94AD0E09F443C0C8010E94D1
:10110000DC0A97FD3EC09C012F7D33272835310531
:1011100049F4C264D250A9F1C8010E94DC0A97FFC9
:1011200007C02FC0B6FE02C0C26001C0C261DA2D86
:10113000812C912C540120ED280F283080F0C4FF21
:1011400004C0B8010E94560B19C02A3040F0C6FFF7
:10115000F8CF2F7D3FEE320F363098F727504C2FC7
:10116000C501B4010E940E084B015C01C260D15060
:1011700059F0C8010E94DC0A97FFDDCFC1FD04C011
:10118000AACF812C912C5401C7FF08C0B094A09421
:1011900090948094811C911CA11CB11C2C2FB50132
:1011A000A401C7010E94020881E0DF91CF911F9145
:1011B0000F91FF90EF90BF90AF909F908F90089508
:1011C000A0E2B0E0E6EEF8E00C94D00B5C01962EC5
:1011D0007A01F9018E010F5F1F4F680180E2D8018B
:1011E0001D928A95E9F7D50113968C9080E090E0E6
:1011F000612C712C30E061E070E083FC259183FE6E
:1012000021918F01522E211103C080E090E092C005
:101210002E3511F4009751F1432F50E0481759072C
:101220003CF42D3559F12D3219F4772009F103C022
:10123000772009F46AC0452D469546954695D60116
:10124000A40FB11D452D47708B0102C0000F111F67
:101250004A95E2F7A8015C91452B4C93651459F02F
:10126000561410F45394E7CF5A94E5CF31E004C0FC
:101270007724739401C0712C0196BFCF772019F0A9
:101280008E8180628E83311103C08824839417C0BD
:10129000F6019E012F5D3F4F8081809581932E172F
:1012A0003F07D1F7F2CFE114F10429F0D7018C9375
:1012B000F70131967F019A94812C9920F9F0C501AC
:1012C0000E94DC0A97FD18C0FC01FF2723E0F5957A
:1012D000E7952A95E1F7EC0DFD1D208130E0AC018A
:1012E0004770552702C0359527954A95E2F720FDAE
:1012F000DACFB5010E94560B811087CFE114F104BB
:1013000011F0D7011C92C80115C0422F4695469591
:101310004695D601A40FB11D422F47708B0102C024
:10132000000F111F4A95E2F7A8015C91452B4C93E1
:10133000622EA2CFA096EFE00C94EC0BA0E0B0E000
:10134000E4EAF9E00C94D00B6C01EB015A01FC01CA
:1013500017821682512CF601E380FE01E3FC859191
:10136000E3FE8191182FEF01882309F4EEC090E08D
:101370000E94B20A892B21F0C6010E943508EBCFEA
:10138000153241F4FE01E3FC1591E3FE1191EF01EA
:10139000153281F4C6010E94DC0A97FDD4C0412FAA
:1013A00050E09C01332724173507A9F2B6010E94AB
:1013B000560BCBC01A3239F4E3FC1591E3FE1191C0
:1013C000EF0101E001C000E0F12C20ED210F2A30F7
:1013D00080F402606F2D70E080E090E040E20E94B7
:1013E0000E08F62EFE01E3FC1591E3FE1191EF01CC
:1013F000ECCF01FF03C0F11003C0A7C0FF24FA9493
:10140000183619F01C3651F010C0FE01E3FC15919E
:10141000E3FE1191EF01183641F408600460FE010B
:10142000E3FC1591E3FE1191EF01112309F48DC046
:10143000612F70E088E690E00E94BB0A892B09F4D6
:1014400084C000FD07C0F50180809180C50102962F
:101450005C0102C0812C912C1E3651F4F6014681AC
:10146000578160E070E0202FC4010E94020873CF12
:101470001336A9F401FD02C0FF24F394C6010E94B3
:10148000DC0A97FD60C08114910429F0F401808387
:10149000C40101964C01FA94F110F0CF50C01B35F5
:1014A00059F49E01A4016F2DC6010E94E008EC01D1
:1014B000892B09F044C03EC0C6010E94350897FD43
:1014C00042C01F3661F128F4143639F1193651F152
:1014D00028C0133771F0153701F123C0811491042E
:1014E00029F0F4016082C40101964C01FA94FF20B6
:1014F00071F0C6010E94DC0A3C0197FD08C00E9401
:10150000B20A892B59F3B601C3010E94560B81140C
:101510009104A9F0F401108212C0006203C00061BE
:1015200001C00064202FA4016F2DC6010E944E0847
:10153000811105C0F6018381807329F406C000FD86
:101540000ACF539408CF552019F0852D90E002C0A2
:101550008FEF9FEFCDB7DEB7EFE00C94EC0B992740
:101560008827089591110C94AF0A803219F08950A0
:101570008550C8F70895FC010590061621F000205B
:10158000D9F7C00108953197CF010895FC01059066
:10159000615070400110D8F7809590958E0F9F1F75
:1015A0000895FC016150704001900110D8F78095BA
:1015B00090958E0F9F1F0895CF93DF93EC012B81A1
:1015C00020FF33C026FF0AC02F7B2B838E819F8193
:1015D00001969F838E838A8190E029C022FF0FC0ED
:1015E000E881F9818081082E000C990B009719F48D
:1015F00020622B831AC03196F983E8830EC0EA85F6
:10160000FB85099597FF09C02B81019611F080E2B7
:1016100001C080E1822B8B8308C02E813F812F5F28
:101620003F4F3F832E83992702C08FEF9FEFDF91BB
:10163000CF9108950F931F93CF93DF93FB012381E5
:1016400021FD03C08FEF9FEF2CC022FF16C0468103
:101650005781248135814217530744F4A081B18119
:101660009D012F5F3F4F318320838C9326813781EB
:101670002F5F3F4F3783268314C08B01EC01FB01A2
:101680000084F185E02D0995892BE1F6D8011696A5
:101690008D919C911797019617969C938E93169710
:1016A000CE01DF91CF911F910F910895FB0123810E
:1016B00020FF12C026FD10C08F3F3FEF930761F05F
:1016C00082832F7D20642383268137812150310935
:1016D00037832683992708958FEF9FEF0895FA01A6
:1016E000AA27283051F1203181F1E8946F936E7F61
:1016F0006E5F7F4F8F4F9F4FAF4FB1E03ED0B4E052
:101700003CD0670F781F891F9A1FA11D680F791F92
:101710008A1F911DA11D6A0F711D811D911DA11DA3
:1017200020D009F468943F912AE0269F11243019B3
:10173000305D3193DEF6CF010895462F4770405D4E
:101740004193B3E00FD0C9F7F6CF462F4F70405DFD
:101750004A3318F0495D31FD4052419302D0A9F758
:10176000EACFB4E0A6959795879577956795BA9552
:10177000C9F700976105710508959B01AC010A2E18
:1017800006945795479537952795BA95C9F7620FEF
:10179000731F841F951FA01D08952F923F924F9293
:1017A0005F926F927F928F929F92AF92BF92CF92F1
:1017B000DF92EF92FF920F931F93CF93DF93CDB7FA
:1017C000DEB7CA1BDB0B0FB6F894DEBF0FBECDBF72
:1017D00009942A88398848885F846E847D848C8443
:1017E0009B84AA84B984C884DF80EE80FD800C814C
:1017F0001B81AA81B981CE0FD11D0FB6F894DEBF2F
:0C1800000FBECDBFED010895F894FFCF9E
:10180C00FFFF434845434B504F494E5420340D0A7B
:10181C000049324320535441525420572074696D6F
:10182C00656F75740D0A004932432053544152546C
:10183C002057206572720D0A0049324320535441DF
:10184C00525420522074696D656F75740D0A0049ED
:10185C0032432053544152542052206572720D0A67
:10186C0000434845434B504F494E54203500545784
:10187C00492054494D454F55540D0A004F4B0D0A04
:10188C00004552524F52204932430D0A00464F52E6
:10189C004D41544F204552524F4E454F0D0A000DAD
:1018AC0046454348413A253032752F253032752F45
:1018BC002530327520484F52413A253032753A2541
:1018CC003032753A253032750D0A000D0A414C4103
:1018DC00524D41204143544956414441210D0A0087
:1018EC00434F4D414E444F533A0D0A00534554203B
:1018FC0054494D452044442F4D4D2F5959204848AB
:10190C003A4D4D3A53530D0A0053455420414C4126
:10191C00524D2048483A4D4D0D0A004F4E00484F4D
:10192C005241204F4E0D0A00434845434B504F49FE
:10193C004E54203200434845434B504F494E54209F
:10194C0033004F464600484F5241204F46460D0A41
:10195C00005345542054494D4520004445425547B9
:10196C003A202200220D0A0053455420414C41528A
:10197C004D2000434F4D414E444F204552524F4E47
:10198C00454F00256868753A2568687500416C619B
:10199C00726D6120636F6E66696775726164612038
:1019AC007061726120253032643A253032640D0A40
:1019BC00004572726F7220646520636F6D756E697D
:1019CC0063616369F36E204932430D0A00466F72FE
:1019DC006D61746F206572726F6E656F2E2055731A
:1019EC0061722048483A4D4D0D0A00414C41524D10
:0619FC0041210D0A00006C
:00000001FF
