S01700004763634170706C69636174696F6E312E737265635B
S11300000C943A000C9457000C9457000C9457002D
S11300100C9457000C9457000C9457000C94570000
S11300200C9457000C9457000C9457000C945700F0
S11300300C9457000C9457000C9457000C945700E0
S11300400C9457000C9457000C9462010C94870193
S11300500C9457000C9457000C9457000C945700C0
S11300600C9457000C9457006364696E6F70737539
S113007078585B0011241FBECFEFD8E0DEBFCDBFA0
S113008013E0A0E0B1E0EEECF4E102C005900D92C3
S1130090A031B107D9F723E0A0E1B3E001C01D927C
S11300A0AB3BB207E1F70E9413020C94650A0C946F
S11300B00000982F92959F708F70990F292F220F0F
S11300C0220F920F890F08959DEC899F912D112481
S11300D0969596959695392F330F232F220F220F3D
S11300E0230F821B282F30E1939FC0011124822B00
S11300F00895CF93DF93EC0180ED0E9425018831B0
S113010051F580E00E943D0188810E9464000E94B4
S11301103D0189810E9464000E943D018A810E9400
S113012064000E943D018B810E9464000E943D0195
S11301308C810E9464000E943D018D810E946400B4
S11301400E943D018E810E9464000E943D010E9434
S1130150390180E001C081E0DF91CF910895CF9310
S1130160DF93EC0180ED0E9425018831B1F580E038
S11301700E943D0181ED0E942501803481F581E0DA
S11301800E9447010E945900888381E00E94470130
S11301900E945900898381E00E9447010E9459000E
S11301A08A8381E00E9447010E9459008B8381E089
S11301B00E9447010E9459008C8381E00E944701FC
S11301C00E9459008D8380E00E9447010E945900DB
S11301D08E830E94390180E003C081E001C081E088
S11301E0DF91CF910895CF9380ED0E94250188314E
S11301F099F48FE00E943D010E94390181ED0E9433
S11302002501803459F480E00E944701C82F0E94E0
S113021039018C2F817003C080E001C080E0CF9150
S1130220089580ED0E942501883141F48FE00E94F9
S11302303D0180E00E943D010E9439010895109221
S1130240B90088E48093B800089594EA9093BC00C0
S11302509091BC009923E4F78093BB0084E88093D9
S1130260BC008091BC008823E4F78091B900887FAA
S1130270089584E98093BC0008958093BB0084E8CA
S11302808093BC008091BC008823E4F70895811119
S113029002C084E801C084EC8093BC008091BC005F
S11302A08823E4F78091BB0008951092C50087E687
S11302B08093C40088E98093C10086E08093C200E3
S11302C0789408951F920F920FB60F9211248F9372
S11302D09F93EF93FF93809153038F5F803408F0D3
S11302E080E0E0915303F0E09091C600EC5AFC4F9B
S11302F0908390915203981380935303FF91EF914D
S11303009F918F910F900FBE0F901F9018951F9281
S11303100F920FB60F9211248F939F93EF93FF9335
S11303209091110380911003981306C0E1ECF0E062
S113033080818F7D808310C0E0911003F0E0EE5E39
S1130340FC4F80818093C600809110038F5F8034BE
S113035008F080E080931003FF91EF919F918F91BB
S11303600F900FBE0F901F901895DC0113C02091C1
S113037011032F5F203408F020E0909110039217AE
S1130380E1F3E0911103F0E01196EE5EFC4F8083FF
S1130390209311038C918111EACFE1ECF0E080818C
S11303A08062808308958091530390915203891B46
S11303B08F7308959091530380915203981779F0A5
S11303C0E0915203F0E0EC5AFC4F8081909152038B
S11303D09F5F903408F090E090935203089580E07A
S11303E008951CC00E94DA018D3011F08A3051F456
S11303F0E0919903F0E0E656FC4F108210929903C5
S113040081E00895909199039F3140F4E92FF0E041
S1130410E656FC4F80839F5F909399030E94D3011B
S11304208111E0CF0895CF93DF93CDB7DEB7EB977B
S11304300FB6F894DEBF0FBECDBF8AB182608AB911
S11304400E9455010E941F01789483E491E00E9468
S1130450B5018FE591E00E94B5018BE691E00E9421
S1130460B5018FE791E00E94B50184E991E00E9413
S1130470B50181EB91E00E94B50183EC91E00E940B
S1130480B50100E010E080919803882349F00E94B0
S1130490F300882329F081E0809395030E941101E1
S11304A080919803882311F18091950381111EC0D6
S11304B0CE01C1960E94AF00811118C09BA9809102
S11304C09603981313C09AA98091970398130EC0AA
S11304D089A981110BC081E0809395031092940344
S11304E083EE91E00E94B5010E9411010E94F10186
S11304F0882309F44FC069EF71E08AE993E00E9410
S11305002604892B41F481E08093BA038CEF91E0B7
S11305100E94B5013BC06CE472E08AE993E00E945A
S11305202604892B39F41092BA0385E192E00E94E3
S1130530B5012CC049E050E061E372E08AE993E040
S11305400E943904892B21F482E08093BA031EC0EF
S11305504AE050E06BE372E08AE993E00E943904D8
S1130560892B21F483E08093BA0310C066E472E01F
S11305708AE993E00E942604892B41F4109298039F
S11305801092950380E592E00E94B50110929A03BF
S113059000E010E08091BA03813079F038F08230C5
S11305A009F446C0833009F481C006C18FE39CE995
S11305B00197F1F700C00000FFC0EFE3FCE93197B9
S11305C0F1F700C00000065F1F4F083EF3E01F076D
S11305D008F4F2C0CE01C1960E94AF008111EAC0B6
S11305E059A94AA93BA92FA99EA98DA91F925F9336
S11305F01F924F931F923F931F922F931F929F938B
S11306001F928F9380E091E09F938F938E010F5FF1
S11306101F4F1F930F930E944704C8010E94B50106
S11306200FB6F894DEBF0FBECDBF00E010E0C4C02B
S1130630CE0101969F938F9301969F938F9301967A
S11306409F938F9304969F938F9301979F938F9378
S113065001979F938F9385E692E09F938F9383EA0C
S113066093E09F938F930E9469040FB6F894DEBFC2
S11306700FBECDBF069791F481E08C83CE01019625
S11306800E947900811105C083E892E00E94B501BF
S113069009C088E892E00E94B50104C084E992E0B0
S11306A00E94B50181E08093BA0386C087E993E094
S11306B09F938F9386E993E09F938F9389E792E0CA
S11306C09F938F9384EA93E09F938F930E9469048E
S11306D00FB6F894DEBF0FBECDBF029709F062C01B
S11306E00F2EF6E9EF2EF3E0FF2EF02DF7018181B6
S11306F00E94640088AFF70180810E94640089AF82
S113070080E88AAF8BAF80ED0E942501883109F023
S113071044C087E00E943D01F12C0AC0E8E3F0E008
S1130720EC0FFD1FEF0DF11D80810E943D01F3943C
S1130730F3E0FF1598F70E94390180ED0E9425012E
S11307408831A1F58EE00E943D0185E00E943D01C3
S11307500E943901E6E9F3E081E082831092950377
S113076010929403918180811F929F931F928F9383
S113077086EA92E09F938F939E012F5F3F4F79010A
S11307803F932F930E944704C7010E94B5010FB6FF
S1130790F894DEBF0FBECDBF09C08AEC92E00E9480
S11307A0B50104C086EE92E00E94B50181E0809319
S11307B0BA0302C000E010E080919503882371F130
S11307C080919403853050F5980136952795369598
S11307D0279536952795A5ECB0E20E9417049295CB
S11307E082958F7089279F70892748EE53E0849FF4
S11307F09001859F300D949F300D1124021713072B
S113080069F486E093E00E94B501809194038F5FC0
S113081080939403853011F410929503EFE3FCE97F
S11308203197F1F700C00000065F1F4F2CCEA29F46
S1130830B001B39FC001A39F700D811D1124911DB0
S1130840B29F700D811D1124911D0895FB01DC01DF
S11308508D9181341CF08B350CF4805E6191613490
S11308601CF06B350CF4605E861B611189F3990BE7
S11308700895FB01DC014150504030F08D9101900E
S1130880801919F40020B9F7881B990B0895AEE07C
S1130890B0E0EDE4F4E00C943C0A0D891E8986E096
S11308A08C831A8309838FEF9FE79E838D83AE0128
S11308B0475E5F4F6F89788DCE0101960E94820456
S11308C0EF81F885E00FF11F10822E96E4E00C947E
S11308D0580AAEE0B0E0EFE6F4E00C943E0A85E09E
S11308E08C838B899C899A838983AE01495E5F4F8F
S11308F06D897E89CE0101960E94FF072E96E2E063
S11309000C945A0AABE0B0E0E8E8F4E00C942E0A48
S11309106C017B018A01FC0117821682838181FFAD
S1130920CCC1CE0101963C01F6019381F70193FD00
S1130930859193FF81917F01882309F4BAC185329F
S113094039F493FD859193FF81917F01853229F4D8
S1130950B60190E00E947809E7CF912C212C312C2C
S1130960FFE1F315D8F08B3279F038F4803279F066
S11309708332A1F4232D20611DC08D3261F08033B8
S113098069F4232D216016C0832D8260382EE32D57
S1130990E4603E2E2AC0F32DF8601DC037FC2DC044
S11309A020ED280F2A3040F08E32B9F436FC81C194
S11309B0232D2064322E19C036FE06C08AE0989E8C
S11309C0200D1124922E11C0EAE02E9E200D112438
S11309D0222EF32DF0623F2E08C08C3621F4832D95
S11309E08068382E02C0883641F4F70193FD859162
S11309F093FF81917F018111B3CF982F9F7D9554EF
S1130A00933028F40C5F1F4F9FE399830DC0833606
S1130A1031F0833771F0833509F059C021C0F801F2
S1130A20808189830E5F1F4F88248394912C530106
S1130A3013C02801F2E04F0E511CF801A080B180D0
S1130A4036FE03C0692D70E002C06FEF7FEFC50171
S1130A500E942F094C018201F32DFF773F2E16C00F
S1130A60280122E0420E511CF801A080B18036FE1C
S1130A7003C0692D70E002C06FEF7FEFC5010E94D3
S1130A8024094C01F32DF0683F2E820133FC1BC076
S1130A90822D90E088169906B0F4B60180E290E0C9
S1130AA00E9478092A94F4CFF50137FC859137FE2A
S1130AB081915F01B60190E00E94780921102A9487
S1130AC021E0821A91088114910471F7E8C08436F8
S1130AD011F0893641F5F80137FE07C06081718154
S1130AE0828193810C5F1F4F08C060817181072E42
S1130AF0000C880B990B0E5F1F4FF32DFF763F2ED2
S1130B0097FF09C090958095709561957F4F8F4FA1
S1130B109F4FF0683F2E2AE030E0A3010E94CD09E8
S1130B20882E861845C0853731F4232D2F7EB22EAA
S1130B302AE030E025C0932D997FB92E8F36C1F07D
S1130B4018F4883579F0B5C0803719F0883721F06A
S1130B50B0C0E92FE061BE2EB4FE0DC0FB2DF460E1
S1130B60BF2E09C034FE0AC0292F2660B22E06C04B
S1130B7028E030E005C020E130E002C020E132E0AE
S1130B80F801B7FE07C060817181828193810C5F97
S1130B901F4F06C06081718180E090E00E5F1F4F9F
S1130BA0A3010E94CD09882E8618FB2DFF773F2EC6
S1130BB036FE0DC0232D2E7FA22E891458F434FE48
S1130BC00BC032FC09C0832D8E7EA82E05C0B82C24
S1130BD0A32C03C0B82C01C0B92CA4FE0FC0FE0185
S1130BE0E80DF11D8081803321F49A2D997EA92E80
S1130BF009C0A2FE06C0B394B39404C08A2D8678BB
S1130C0009F0B394A3FC11C0A0FE06C0B21488F48A
S1130C10280C922C9B180EC0B21460F4B60180E22A
S1130C2090E00E947809B394F7CFB21418F42B180B
S1130C3002C0982C212CA4FE10C0B60180E390E0E1
S1130C400E947809A2FE17C0A1FC03C088E790E0C7
S1130C5002C088E590E0B6010CC08A2D867859F070
S1130C60A1FE02C08BE201C080E2A7FC8DE2B601C6
S1130C7090E00E947809891438F4B60180E390E08A
S1130C800E9478099A94F7CF8A94F301E80DF11D34
S1130C908081B60190E00E9478098110F5CF22206E
S1130CA009F442CEB60180E290E00E9478092A94C9
S1130CB0F6CFF6018681978102C08FEF9FEF2B96C6
S1130CC0E2E10C944A0A20FD09C0FC0123FD05C0A1
S1130CD022FF02C07383628351834083089544FDDD
S1130CE017C046FD17C0AB01BC01DA01FB01AA0F16
S1130CF0BB1FEE1FFF1F1094D1F74A0F5B1F6E1F1F
S1130D007F1FCB01BA01660F771F881F991F09C087
S1130D1033E001C034E0660F771F881F991F3150FC
S1130D20D1F7620F711D811D911D08950F931F93BB
S1130D30CF93DF938C01C8010E943A09EC0197FD1F
S1130D4008C00E941009892BB1F7B801CE010E9496
S1130D50B409CE01DF91CF911F910F9108958F9225
S1130D609F92AF92BF92EF92FF920F931F93CF93F4
S1130D70DF938C01D62F7A01B22E0E943A099C018E
S1130D8033272B32310531F02D32310561F48B2DAF
S1130D908068B82ED15011F480E068C0C8010E9468
S1130DA03A0997FDF9CFCB2DCD7F2B2D207309F573
S1130DB08033F9F4AA24AA94AD0E09F443C0C801FF
S1130DC00E943A0997FD3EC09C012F7D33272835A8
S1130DD0310549F4C264D250A9F1C8010E943A090C
S1130DE097FF07C02FC0B6FE02C0C26001C0C26137
S1130DF0DA2D812C912C540120ED280F283080F01D
S1130E00C4FF04C0B8010E94B40919C02A3040F0DC
S1130E10C6FFF8CF2F7D3FEE320F363098F72750BC
S1130E204C2FC501B4010E946F064B015C01C260E6
S1130E30D15059F0C8010E943A0997FFDDCFC1FD96
S1130E4004C0AACF812C912C5401C7FF08C0B094D0
S1130E50A09490948094811C911CA11CB11C2C2FF3
S1130E60B501A401C7010E94630681E0DF91CF911F
S1130E701F910F91FF90EF90BF90AF909F908F9034
S1130E800895A0E2B0E0E7E4F7E00C94310A5C01D5
S1130E90962E7A01F9018E010F5F1F4F680180E2DF
S1130EA0D8011D928A95E9F7D50113968C9080E0BC
S1130EB090E0612C712C30E061E070E083FC2591BE
S1130EC083FE21918F01522E211103C080E090E016
S1130ED092C02E3511F4009751F1432F50E048177A
S1130EE059073CF42D3559F12D3219F4772009F1C5
S1130EF003C0772009F46AC0452D4695469546956A
S1130F00D601A40FB11D452D47708B0102C0000FFF
S1130F10111F4A95E2F7A8015C91452B4C93651487
S1130F2059F0561410F45394E7CF5A94E5CF31E0B6
S1130F3004C07724739401C0712C0196BFCF77202D
S1130F4019F08E8180628E83311103C088248394CA
S1130F5017C0F6019E012F5D3F4F808180958193DC
S1130F602E173F07D1F7F2CFE114F10429F0D7018E
S1130F708C93F70131967F019A94812C9920F9F092
S1130F80C5010E943A0997FD18C0FC01FF2723E020
S1130F90F595E7952A95E1F7EC0DFD1D208130E0EC
S1130FA0AC014770552702C0359527954A95E2F75D
S1130FB020FDDACFB5010E94B409811087CFE11476
S1130FC0F10411F0D7011C92C80115C0422F4695B7
S1130FD046954695D601A40FB11D422F47708B014B
S1130FE002C0000F111F4A95E2F7A8015C91452B3E
S1130FF04C93622EA2CFA096EFE00C944D0AA0E091
S1131000B0E0E5E0F8E00C94310A6C01EB015A0120
S1131010FC0117821682512CF601E380FE01E3FCE9
S11310208591E3FE8191182FEF01882309F4EEC026
S113103090E00E941009892B21F0C6010E949606B7
S1131040EBCF153241F4FE01E3FC1591E3FE11915F
S1131050EF01153281F4C6010E943A0997FDD4C00C
S1131060412F50E09C01332724173507A9F2B6011C
S11310700E94B409CBC01A3239F4E3FC1591E3FEA3
S11310801191EF0101E001C000E0F12C20ED210FEE
S11310902A3080F402606F2D70E080E090E040E23E
S11310A00E946F06F62EFE01E3FC1591E3FE1191FA
S11310B0EF01ECCF01FF03C0F11003C0A7C0FF2470
S11310C0FA94183619F01C3651F010C0FE01E3FCF6
S11310D01591E3FE1191EF01183641F408600460A4
S11310E0FE01E3FC1591E3FE1191EF01112309F4D4
S11310F08DC0612F70E088E690E00E941909892B69
S113110009F484C000FD07C0F50180809180C50109
S113111002965C0102C0812C912C1E3651F4F6011A
S11311204681578160E070E0202FC4010E9463066D
S113113073CF1336A9F401FD02C0FF24F394C60152
S11311400E943A0997FD60C08114910429F0F401CA
S11311508083C40101964C01FA94F110F0CF50C081
S11311601B3559F49E01A4016F2DC6010E9441074D
S1131170EC01892B09F044C03EC0C6010E949606CA
S113118097FD42C01F3661F128F4143639F119363F
S113119051F128C0133771F0153701F123C08114C0
S11311A0910429F0F4016082C40101964C01FA947F
S11311B0FF2071F0C6010E943A093C0197FD08C066
S11311C00E941009892B59F3B601C3010E94B40986
S11311D081149104A9F0F401108212C0006203C0CA
S11311E0006101C00064202FA4016F2DC6010E947C
S11311F0AF06811105C0F6018381807329F406C00E
S113120000FD0ACF539408CF552019F0852D90E0A6
S113121002C08FEF9FEFCDB7DEB7EFE00C944D0A1D
S113122091110C942B0A803219F089508550C8F71B
S11312300895FC010590061621F00020D9F7C0019D
S113124008953197CF010895FC01059061507040D5
S11312500110D8F7809590958E0F9F1F0895FC017B
S11312606150704001900110D8F7809590958E0FD1
S11312709F1F0895CF93DF93EC012B8120FF33C090
S113128026FF0AC02F7B2B838E819F8101969F832B
S11312908E838A8190E029C022FF0FC0E881F98102
S11312A08081082E000C990B009719F420622B837F
S11312B01AC03196F983E8830EC0EA85FB85099547
S11312C097FF09C02B81019611F080E201C080E1F3
S11312D0822B8B8308C02E813F812F5F3F4F3F833A
S11312E02E83992702C08FEF9FEFDF91CF9108954E
S11312F00F931F93CF93DF93FB01238121FD03C041
S11313008FEF9FEF2CC022FF16C0468157812481A6
S113131035814217530744F4A081B1819D012F5FA9
S11313203F4F318320838C93268137812F5F3F4F3A
S11313303783268314C08B01EC01FB010084F18503
S1131340E02D0995892BE1F6D80116968D919C9193
S11313501797019617969C938E931697CE01DF915B
S1131360CF911F910F910895FB01238120FF12C09B
S113137026FD10C08F3F3FEF930761F082832F7DDE
S113138020642383268137812150310937832683C2
S1131390992708958FEF9FEF0895FA01AA2728301F
S11313A051F1203181F1E8946F936E7F6E5F7F4F2E
S11313B08F4F9F4FAF4FB1E03ED0B4E03CD0670FAA
S11313C0781F891F9A1FA11D680F791F8A1F911DFD
S11313D0A11D6A0F711D811D911DA11D20D009F44D
S11313E068943F912AE0269F11243019305D31938F
S11313F0DEF6CF010895462F4770405D4193B3E078
S11314000FD0C9F7F6CF462F4F70405D4A3318F01E
S1131410495D31FD4052419302D0A9F7EACFB4E0CF
S1131420A6959795879577956795BA95C9F7009787
S11314306105710508959B01AC010A2E0694579528
S1131440479537952795BA95C9F7620F731F841F7F
S1131450951FA01D08959927882708952F923F92DC
S11314604F925F926F927F928F929F92AF92BF92B0
S1131470CF92DF92EF92FF920F931F93CF93DF935C
S1131480CDB7DEB7CA1BDB0B0FB6F894DEBF0FBEB9
S1131490CDBF09942A88398848885F846E847D8406
S11314A08C849B84AA84B984C884DF80EE80FD8008
S11314B00C811B81AA81B981CE0FD11D0FB6F8947E
S11114C0DEBF0FBECDBFED010895F894FFCF3F
S11314CE0D46454348413A253032752F2530327545
S11314DE2F2530327520484F52413A253032753A15
S11314EE253032753A2530327520202020000D0A21
S11314FE414C41524D4120414354495641444121AE
S113150E0D0A000D0A2A2A2A2052544320414C4126
S113151E524D20434C4F434B202A2A2A0D0A004396
S113152E4F4D414E444F533A0D0A004F4E202D203D
S113153E4D6F737472617220686F72610D0A004F81
S113154E4646202D204F63756C74617220686F724D
S113155E610D0A005345542054494D452044442FEF
S113156E4D4D2F59592048483A4D4D3A53530D0A73
S113157E0053455420414C41524D2048483A4D4D5C
S113158E0D0A00414C41524D204F4646202D204419
S113159E65736163746976617220616C61726D61E9
S11315AE0D0A000D0AA1414C41524D4120414354B4
S11315BE4956414441210D0A004F4E005669737538
S11315CE616C697A6163696F6E20616374697661B7
S11315DE64610D0A0056697375616C697A61636999
S11315EE6F6E2064657361637469766164610D0A5C
S11315FE005345542054494D452000534554204131
S113160E4C41524D2000414C41524D204F46460014
S113161E416C61726D612064657361637469766196
S113162E64610D0A00256868752F256868752F2575
S113163E68687520256868753A256868753A25685E
S113164E6875004F4B0D0A004552524F52204932D5
S113165E430D0A00464F524D41544F204552524FAE
S113166E4E454F0D0A00416C61726D6120636F6EC1
S113167E66696775726164612070617261202530DC
S113168E32643A253032640D0A004572726F72204C
S113169E646520636F6D756E6963616369F36E20B3
S11316AE4932430D0A00466F726D61746F20696E84
S11316BE636F72726563746F2E205573652048488C
S11316CE3A4D4D0D0A00414C41524D41210D0A0037
S9030000FC
