:100000000C943A000C9457000C9457000C94570031
:100010000C9457000C9457000C9457000C94570004
:100020000C9457000C9457000C9457000C945700F4
:100030000C9457000C9457000C9457000C945700E4
:100040000C9457000C9457000C9462010C94870197
:100050000C9457000C9457000C9457000C945700C4
:100060000C9457000C9457006364696E6F7073753D
:1000700078585B0011241FBECFEFD8E0DEBFCDBFA4
:1000800012E0A0E0B1E0EEEFF6E102C005900D92C3
:10009000A63AB107D9F723E0A6EAB2E001C01D9263
:1000A000A135B207E1F70E94D1030C947D0B0C94AB
:1000B0000000982F92959F708F70990F292F220F13
:1000C000220F920F890F08959DEC899F912D112485
:1000D000969596959695392F330F232F220F220F41
:1000E000230F821B282F30E1939FC0011124822B04
:1000F0000895CF93DF93EC0180ED0E9425018831B4
:1001000051F580E00E943D0188810E9464000E94B8
:100110003D0189810E9464000E943D018A810E9404
:1001200064000E943D018B810E9464000E943D0199
:100130008C810E9464000E943D018D810E946400B8
:100140000E943D018E810E9464000E943D010E9438
:10015000390180E001C081E0DF91CF910895CF9314
:10016000DF93EC0180ED0E9425018831B1F580E03C
:100170000E943D0181ED0E942501803481F581E0DE
:100180000E9447010E945900888381E00E94470134
:100190000E945900898381E00E9447010E94590012
:1001A0008A8381E00E9447010E9459008B8381E08D
:1001B0000E9447010E9459008C8381E00E94470100
:1001C0000E9459008D8380E00E9447010E945900DF
:1001D0008E830E94390180E003C081E001C081E08C
:1001E000DF91CF910895CF9380ED0E942501883152
:1001F00099F48FE00E943D010E94390181ED0E9437
:100200002501803459F480E00E944701C82F0E94E4
:1002100039018C2F817003C080E001C080E0CF9154
:10022000089580ED0E942501883141F48FE00E94FD
:100230003D0180E00E943D010E9439010895109225
:10024000B90088E48093B800089594EA9093BC00C4
:100250009091BC009923E4F78093BB0084E88093DD
:10026000BC008091BC008823E4F78091B900887FAE
:10027000089584E98093BC0008958093BB0084E8CE
:100280008093BC008091BC008823E4F7089581111D
:1002900002C084E801C084EC8093BC008091BC0063
:1002A0008823E4F78091BB0008951092C50087E68B
:1002B0008093C40088E98093C10086E08093C200E7
:1002C000789408951F920F920FB60F9211248F9376
:1002D0009F93EF93FF938091E9028F5F803408F042
:1002E00080E0E091E902F0E09091C600E651FD4F18
:1002F00090839091E80298138093E902FF91EF9127
:100300009F918F910F900FBE0F901F9018951F9285
:100310000F920FB60F9211248F939F93EF93FF9339
:100320009091A7028091A602981306C0E1ECF0E03C
:1003300080818F7D808310C0E091A602F0E0E855B7
:10034000FD4F80818093C6008091A6028F5F80342C
:1003500008F080E08093A602FF91EF919F918F912A
:100360000F900FBE0F901F901895DC0113C02091C5
:10037000A7022F5F203408F020E09091A602921788
:10038000E1F3E091A702F0E01196E855FD4F80837C
:100390002093A7028C918111EACFE1ECF0E08081FB
:1003A0008062808308958091E9029091E802891B20
:1003B0008F7308959091E9028091E802981779F07F
:1003C000E091E802F0E0E651FD4F80819091E80273
:1003D0009F5F903408F090E09093E802089580E0E9
:1003E0000895CF93DF9333C00E94DA01C82F88307D
:1003F00011F08F3741F480912F03882341F1815010
:1004000080932F0324C08D3011F08A3071F4E09175
:100410002F03F0E0E05DFC4F108210922F0382E684
:1004200091E00E94B50181E016C0D0912F03DF3129
:1004300070F490E00E943705892B49F081E08D0F20
:1004400080932F03ED2FF0E0E05DFC4FC0830E940E
:10045000D3018111C9CFDF91CF910895EF92FF921F
:100460000F931F93CF93DF93CDB7DEB727970FB6C8
:10047000F894DEBF0FBECDBFFC0101900020E9F76C
:100480003197E81BF90B719709F0F6C0DC01129661
:100490002C9112972F3209F0EFC015962C911597D9
:1004A0002F3209F0E9C018962C911897203209F0E4
:1004B000E3C01B962C911B972A3309F0DDC01E96D2
:1004C0002C911E972A3309F0D7C00C91202F30E0D1
:1004D000205331092A30310508F0CEC011961C9105
:1004E0001197212F30E0205331092A30310508F0CF
:1004F000C3C013962C91139730E0205331092A3052
:10050000310508F0B9C014962C91149730E02053AF
:1005100031092A30310508F0AFC016965C91169764
:10052000252F30E0205331092A30310508F0A4C0CE
:100530001796BC912B2F30E0205331092A3031051A
:1005400008F09AC0FC014185242F30E02053310986
:100550002A30310508F090C0A2852A2F30E02053C0
:1005600031092A30310508F087C03485632F70E0E7
:10057000605371096A30710508F07EC07585E72EF9
:10058000F12CF0E3EF1AF1082AE0E216F10408F08A
:1005900073C0FC012785E22EF12CF0E3EF1AF1087D
:1005A0006AE0E616F10408F067C0FC016089E62EF7
:1005B000F12CF0E3EF1AF108EAE0EE16F10408F08E
:1005C0005BC0E02FF0E0F097EE0FFE2FFF0FFF0F64
:1005D000EF0FE10FE053ED83FC011381E12FF0E019
:1005E000F097EE0FFE2FFF0FFF0F1E2F1F0FFC01C6
:1005F0008481810F80538E83852F90E0C097880F70
:10060000982F990F990F890F8B0F80538F83842F09
:1006100090E0C097880F982F990F990F890F8A0F34
:1006200080538B83832F90E0C097880F982F990F6A
:10063000990F890F870F80538A83822F90E0C0978C
:10064000880F982F990F990F890F860F80538983F0
:1006500081E08C83CE0101960E947900811106C051
:1006600082E091E00E94B50181E00BC087E091E05B
:100670000E94B50180E005C083E191E00E94B501D0
:1006800080E027960FB6F894DEBF0FBECDBFDF9196
:10069000CF911F910F91FF90EF9008950F931F93AB
:1006A000CF93DF93CDB7DEB7E7970FB6F894DEBFF1
:1006B0000FBECDBFCE0101960E94AF0081114DC08B
:1006C000898190910001891731F1809300015A814D
:1006D0004B813F812E819D811F928F931F925F934B
:1006E0001F924F931F923F931F922F931F929F939E
:1006F00085E291E09F938F938E01085F1F4F1F93B8
:100700000F930E945F05C8010E94B5010FB6F894CF
:10071000DEBF0FBECDBF80912E038823D9F080911C
:100720002B03811117C09B8180912C03981312C059
:100730008A8190912D0389130DC090910101891731
:1007400049F081E080932B0310922A0380E591E029
:100750000E94B5018A8180930101E7960FB6F89453
:10076000DEBF0FBECDBFDF91CF911F910F910895D6
:1007700085E691E00E94B50181E891E00E94B50113
:100780008DE891E00E94B50181EA91E00E94B501F7
:1007900086EB91E00E94B50183ED91E00E94B501E6
:1007A0000895CF93DF93CDB7DEB7AB970FB6F8942C
:1007B000DEBF0FBECDBF8AB182608AB90E945501EB
:1007C0000E941F0178941FEF80912E03882349F027
:1007D0000E94F300882329F081E080932B030E947C
:1007E000110180912E03882309F180912B0381113F
:1007F0001DC0CE0101960E94AF00811117C09B81E0
:1008000080912C03981312C09A8180912D03981324
:100810000DC0898181110AC081E080932B03109261
:100820002A0384E0809350030E9411010E94F10189
:10083000882309F44FC065EE71E080E393E00E94E5
:100840003E05892B41F481E08093500388EE91E0CE
:100850000E94B5013DC062EF71E080E393E00E9429
:100860003E05892B39F41092500386EF91E00E94E7
:10087000B5012EC049E050E061E072E080E393E012
:100880000E945105892B81F48BE092E00E94B50112
:1008900080E393E00E94B50184E192E00E94B501FB
:1008A00082E08093500314C04AE050E068E172E0B7
:1008B00080E393E00E945105892B21F483E080932B
:1008C000500306C083E292E00E94B5010E94B80383
:1008D0001092300380915003181731F0811102C03B
:1008E0000E94B8031091500380915003823069F048
:1008F00018F4813039F0B2C0833099F0843009F4B3
:1009000092C0ACC00E944E03A9C089E393E00E944C
:100910002E02813019F480935003A0C0109250032E
:100920009DC08DE293E09F938F938CE293E09F9321
:100930008F9383E392E09F938F938AE393E09F9357
:100940008F930E9481050FB6F894DEBF0FBECDBF16
:10095000029709F083C00F2EFCE2EF2EF3E0FF2E8A
:10096000F02DF70181810E94640088A7F701808142
:100970000E94640089A780E88AA78BA780ED0E9467
:100980002501883109F048C087E00E943D0100E060
:100990000AC0E8E2F0E0EC0FFD1FE00FF11D8081DE
:1009A0000E943D010F5F0430A0F30E94390180EDE9
:1009B0000E942501883159F58EE00E943D0185E0B5
:1009C0000E943D010E943901ECE2F3E081E0828364
:1009D00010922B0310922A03918180811F929F9382
:1009E0001F928F938DE392E09F938F937E01F8E0A7
:1009F000EF0EF11CFF92EF920E945F05C7010E946B
:100A0000B5010FB6F894DEBF0FBECDBF09C081E6B9
:100A100092E00E94B50104C08DE792E00E94B5010A
:100A2000109250031BC0CE0101960E94AF008111AD
:100A300015C0898190910001891781F08093000190
:100A40008BE992E00E94B50180912A038F5F809329
:100A50002A03853018F081E0809350038FE39CE9EE
:100A60000197F1F700C00000AFCE803209F091117C
:100A70000C94280A80528F55D8F70895FB01DC01A9
:100A80008D9181341CF08B350CF4805E6191613462
:100A90001CF06B350CF4605E861B611189F3990BB9
:100AA0000895FB01DC014150504030F08D910190E0
:100AB000801919F40020B9F7881B990B0895AEE04E
:100AC000B0E0E5E6F5E00C94540B0D891E8986E054
:100AD0008C831A8309838FEF9FE79E838D83AE01FA
:100AE000475E5F4F6F89788DCE0101960E949A050F
:100AF000EF81F885E00FF11F10822E96E4E00C9450
:100B0000700BAEE0B0E0E7E8F5E00C94560B85E042
:100B10008C838B899C899A838983AE01495E5F4F60
:100B20006D897E89CE0101960E9417092E96E2E01A
:100B30000C94720BABE0B0E0E0EAF5E00C94460BED
:100B40006C017B018A01FC0117821682838181FF7F
:100B5000CCC1CE0101963C01F6019381F70193FDD2
:100B6000859193FF81917F01882309F4BAC1853271
:100B700039F493FD859193FF81917F01853229F4AA
:100B8000B60190E00E94930AE7CF912C212C312CE2
:100B9000FFE1F315D8F08B3279F038F4803279F038
:100BA0008332A1F4232D20611DC08D3261F080338A
:100BB00069F4232D216016C0832D8260382EE32D29
:100BC000E4603E2E2AC0F32DF8601DC037FC2DC016
:100BD00020ED280F2A3040F08E32B9F436FC81C166
:100BE000232D2064322E19C036FE06C08AE0989E5E
:100BF000200D1124922E11C0EAE02E9E200D11240A
:100C0000222EF32DF0623F2E08C08C3621F4832D66
:100C10008068382E02C0883641F4F70193FD859133
:100C200093FF81917F018111B3CF982F9F7D9554C0
:100C3000933028F40C5F1F4F9FE399830DC08336D8
:100C400031F0833771F0833509F059C021C0F801C4
:100C5000808189830E5F1F4F88248394912C5301D8
:100C600013C02801F2E04F0E511CF801A080B180A2
:100C700036FE03C0692D70E002C06FEF7FEFC50143
:100C80000E944A0A4C018201F32DFF773F2E16C0C5
:100C9000280122E0420E511CF801A080B18036FEEE
:100CA00003C0692D70E002C06FEF7FEFC5010E94A5
:100CB0003F0A4C01F32DF0683F2E820133FC1BC02C
:100CC000822D90E088169906B0F4B60180E290E09B
:100CD0000E94930A2A94F4CFF50137FC859137FEE0
:100CE00081915F01B60190E00E94930A21102A943D
:100CF00021E0821A91088114910471F7E8C08436CA
:100D000011F0893641F5F80137FE07C06081718125
:100D1000828193810C5F1F4F08C060817181072E13
:100D2000000C880B990B0E5F1F4FF32DFF763F2EA3
:100D300097FF09C090958095709561957F4F8F4F73
:100D40009F4FF0683F2E2AE030E0A3010E94E80A9E
:100D5000882E861845C0853731F4232D2F7EB22E7C
:100D60002AE030E025C0932D997FB92E8F36C1F04F
:100D700018F4883579F0B5C0803719F0883721F03C
:100D8000B0C0E92FE061BE2EB4FE0DC0FB2DF460B3
:100D9000BF2E09C034FE0AC0292F2660B22E06C01D
:100DA00028E030E005C020E130E002C020E132E080
:100DB000F801B7FE07C060817181828193810C5F69
:100DC0001F4F06C06081718180E090E00E5F1F4F71
:100DD000A3010E94E80A882E8618FB2DFF773F2E7C
:100DE00036FE0DC0232D2E7FA22E891458F434FE1A
:100DF0000BC032FC09C0832D8E7EA82E05C0B82CF6
:100E0000A32C03C0B82C01C0B92CA4FE0FC0FE0156
:100E1000E80DF11D8081803321F49A2D997EA92E51
:100E200009C0A2FE06C0B394B39404C08A2D86788C
:100E300009F0B394A3FC11C0A0FE06C0B21488F45C
:100E4000280C922C9B180EC0B21460F4B60180E2FC
:100E500090E00E94930AB394F7CFB21418F42B18C1
:100E600002C0982C212CA4FE10C0B60180E390E0B3
:100E70000E94930AA2FE17C0A1FC03C088E790E07D
:100E800002C088E590E0B6010CC08A2D867859F042
:100E9000A1FE02C08BE201C080E2A7FC8DE2B60198
:100EA00090E00E94930A891438F4B60180E390E040
:100EB0000E94930A9A94F7CF8A94F301E80DF11DEA
:100EC0008081B60190E00E94930A8110F5CF222024
:100ED00009F442CEB60180E290E00E94930A2A947F
:100EE000F6CFF6018681978102C08FEF9FEF2B9698
:100EF000E2E10C94620B20FD09C0FC0123FD05C05A
:100F000022FF02C07383628351834083089544FDAE
:100F100017C046FD17C0AB01BC01DA01FB01AA0FE7
:100F2000BB1FEE1FFF1F1094D1F74A0F5B1F6E1FF0
:100F30007F1FCB01BA01660F771F881F991F09C059
:100F400033E001C034E0660F771F881F991F3150CE
:100F5000D1F7620F711D811D911D08950F931F938D
:100F6000CF93DF938C01C8010E94550AEC0197FDD5
:100F700008C00E942B0A892BB1F7B801CE010E944C
:100F8000CF0ACE01DF91CF911F910F9108958F92DB
:100F90009F92AF92BF92EF92FF920F931F93CF93C6
:100FA000DF938C01D62F7A01B22E0E94550A9C0144
:100FB00033272B32310531F02D32310561F48B2D81
:100FC0008068B82ED15011F480E068C0C8010E943A
:100FD000550A97FDF9CFCB2DCD7F2B2D207309F529
:100FE0008033F9F4AA24AA94AD0E09F443C0C801D1
:100FF0000E94550A97FD3EC09C012F7D332728355E
:10100000310549F4C264D250A9F1C8010E94550AC1
:1010100097FF07C02FC0B6FE02C0C26001C0C26108
:10102000DA2D812C912C540120ED280F283080F0EE
:10103000C4FF04C0B8010E94CF0A19C02A3040F092
:10104000C6FFF8CF2F7D3FEE320F363098F727508E
:101050004C2FC501B4010E9487074B015C01C2609F
:10106000D15059F0C8010E94550A97FFDDCFC1FD4C
:1010700004C0AACF812C912C5401C7FF08C0B094A2
:10108000A09490948094811C911CA11CB11C2C2FC5
:10109000B501A401C7010E947B0781E0DF91CF91D8
:1010A0001F910F91FF90EF90BF90AF909F908F9006
:1010B0000895A0E2B0E0EFE5F8E00C94490B5C0184
:1010C000962E7A01F9018E010F5F1F4F680180E2B1
:1010D000D8011D928A95E9F7D50113968C9080E08E
:1010E00090E0612C712C30E061E070E083FC259190
:1010F00083FE21918F01522E211103C080E090E0E8
:1011000092C02E3511F4009751F1432F50E048174B
:1011100059073CF42D3559F12D3219F4772009F196
:1011200003C0772009F46AC0452D4695469546953B
:10113000D601A40FB11D452D47708B0102C0000FD1
:10114000111F4A95E2F7A8015C91452B4C93651459
:1011500059F0561410F45394E7CF5A94E5CF31E088
:1011600004C07724739401C0712C0196BFCF7720FF
:1011700019F08E8180628E83311103C0882483949C
:1011800017C0F6019E012F5D3F4F808180958193AE
:101190002E173F07D1F7F2CFE114F10429F0D70160
:1011A0008C93F70131967F019A94812C9920F9F064
:1011B000C5010E94550A97FD18C0FC01FF2723E0D6
:1011C000F595E7952A95E1F7EC0DFD1D208130E0BE
:1011D000AC014770552702C0359527954A95E2F72F
:1011E00020FDDACFB5010E94CF0A811087CFE1142C
:1011F000F10411F0D7011C92C80115C0422F469589
:1012000046954695D601A40FB11D422F47708B011C
:1012100002C0000F111F4A95E2F7A8015C91452B0F
:101220004C93622EA2CFA096EFE00C94650BA0E049
:10123000B0E0EDE1F9E00C94490B6C01EB015A01CF
:10124000FC0117821682512CF601E380FE01E3FCBB
:101250008591E3FE8191182FEF01882309F4EEC0F8
:1012600090E00E942B0A892B21F0C6010E94AE0754
:10127000EBCF153241F4FE01E3FC1591E3FE119131
:10128000EF01153281F4C6010E94550A97FDD4C0C2
:10129000412F50E09C01332724173507A9F2B601EE
:1012A0000E94CF0ACBC01A3239F4E3FC1591E3FE59
:1012B0001191EF0101E001C000E0F12C20ED210FC0
:1012C0002A3080F402606F2D70E080E090E040E210
:1012D0000E948707F62EFE01E3FC1591E3FE1191B3
:1012E000EF01ECCF01FF03C0F11003C0A7C0FF2442
:1012F000FA94183619F01C3651F010C0FE01E3FCC8
:101300001591E3FE1191EF01183641F40860046075
:10131000FE01E3FC1591E3FE1191EF01112309F4A5
:101320008DC0612F70E088E690E00E94340A892B1E
:1013300009F484C000FD07C0F50180809180C501DB
:1013400002965C0102C0812C912C1E3651F4F601EC
:101350004681578160E070E0202FC4010E947B0726
:1013600073CF1336A9F401FD02C0FF24F394C60124
:101370000E94550A97FD60C08114910429F0F40180
:101380008083C40101964C01FA94F110F0CF50C053
:101390001B3559F49E01A4016F2DC6010E94590806
:1013A000EC01892B09F044C03EC0C6010E94AE0783
:1013B00097FD42C01F3661F128F4143639F1193611
:1013C00051F128C0133771F0153701F123C0811492
:1013D000910429F0F4016082C40101964C01FA9451
:1013E000FF2071F0C6010E94550A3C0197FD08C01C
:1013F0000E942B0A892B59F3B601C3010E94CF0A20
:1014000081149104A9F0F401108212C0006203C09B
:10141000006101C00064202FA4016F2DC6010E944D
:10142000C707811105C0F6018381807329F406C0C6
:1014300000FD0ACF539408CF552019F0852D90E078
:1014400002C08FEF9FEFCDB7DEB7EFE00C94650BD6
:1014500099278827089591110C94280A803219F051
:1014600089508550C8F70895FC010590061621F0B3
:101470000020D9F7C00108953197CF010895FC01EC
:101480000590615070400110D8F7809590958E0FAF
:101490009F1F0895FC016150704001900110D8F722
:1014A000809590958E0F9F1F0895CF93DF93EC0149
:1014B0002B8120FF33C026FF0AC02F7B2B838E8118
:1014C0009F8101969F838E838A8190E029C022FFAD
:1014D0000FC0E881F9818081082E000C990B0097DC
:1014E00019F420622B831AC03196F983E8830EC069
:1014F000EA85FB85099597FF09C02B81019611F0BC
:1015000080E201C080E1822B8B8308C02E813F8165
:101510002F5F3F4F3F832E83992702C08FEF9FEFAE
:10152000DF91CF9108950F931F93CF93DF93FB012A
:10153000238121FD03C08FEF9FEF2CC022FF16C037
:1015400046815781248135814217530744F4A08195
:10155000B1819D012F5F3F4F318320838C93268182
:1015600037812F5F3F4F3783268314C08B01EC01F7
:10157000FB010084F185E02D0995892BE1F6D80166
:1015800016968D919C911797019617969C938E9322
:101590001697CE01DF91CF911F910F910895FB0116
:1015A000238120FF12C026FD10C08F3F3FEF93071D
:1015B00061F082832F7D206423832681378121502F
:1015C000310937832683992708958FEF9FEF089578
:1015D000FA01AA27283051F1203181F1E8946F9364
:1015E0006E7F6E5F7F4F8F4F9F4FAF4FB1E03ED00A
:1015F000B4E03CD0670F781F891F9A1FA11D680FA8
:10160000791F8A1F911DA11D6A0F711D811D911DDA
:10161000A11D20D009F468943F912AE0269F11244F
:101620003019305D3193DEF6CF010895462F4770B3
:10163000405D4193B3E00FD0C9F7F6CF462F4F700E
:10164000405D4A3318F0495D31FD4052419302D06C
:10165000A9F7EACFB4E0A695979587957795679512
:10166000BA95C9F700976105710508959B01AC0112
:101670000A2E06945795479537952795BA95C9F739
:10168000620F731F841F951FA01D08952F923F9214
:101690004F925F926F927F928F929F92AF92BF9282
:1016A000CF92DF92EF92FF920F931F93CF93DF932E
:1016B000CDB7DEB7CA1BDB0B0FB6F894DEBF0FBE8B
:1016C000CDBF09942A88398848885F846E847D84D8
:1016D0008C849B84AA84B984C884DF80EE80FD80DA
:1016E0000C811B81AA81B981CE0FD11D0FB6F89450
:0E16F000DEBF0FBECDBFED010895F894FFCF11
:1016FE00FFFF4F4B0D0A004552524F5220493243C5
:10170E000D0A00464F524D41544F204552524F4EF6
:10171E00454F0D0A000D46454348413A2530327576
:10172E002F253032752F2530327520484F52413AD1
:10173E00253032753A253032753A253032750D0026
:10174E000D0A414C41524D412041435449564144AA
:10175E0041210D0A000D0A2A2A2A20525443204103
:10176E004C41524D20434C4F434B202A2A2A0D0AFE
:10177E0000434F4D414E444F533A0D0A004F4E20F9
:10178E002D204D6F737472617220686F72610D0A35
:10179E00004F4646202D204F63756C746172206891
:1017AE006F72610D0A005345542054494D45204433
:1017BE00442F4D4D2F59592048483A4D4D3A5353C9
:1017CE000D0A0053455420414C41524D2048483A91
:1017DE004D4D0D0A004F4E00484F5241204F4E0DB9
:1017EE000A004F464600484F5241204F46460D0ACA
:1017FE00005345542054494D452000444542554719
:10180E003A202200220D0A0053455420414C4152E9
:10181E004D2000434F4D414E444F204552524F4EA6
:10182E00454F00256868753A2568687500416C61FA
:10183E00726D6120636F6E66696775726164612097
:10184E007061726120253032643A253032640D0A9F
:10185E00004572726F7220646520636F6D756E69DC
:10186E0063616369F36E204932430D0A00466F725D
:10187E006D61746F206572726F6E656F2E20557379
:10188E0061722048483A4D4D0D0A00414C41524D6F
:06189E0041210D0A0000CB
:00000001FF
